:020000040800F2
:100000001CCE0020350600089D0600089D0600084D
:100010009D0600089D0600089D06000800000000DF
:100020000000000000000000000000009D06000825
:100030009D060008000000009D0600089D060008BF
:100040009D0600089D0600089D0600089D06000804
:100050009D0600089D0600089D0600089D060008F4
:100060009D0600089D0600089D0600089D060008E4
:100070009D0600089D0600089D0600089D060008D4
:100080009D0600089D0600089D0600089D060008C4
:100090009D0600089D0600089D0600089D060008B4
:1000A0009D0600089D0600089D0600089D060008A4
:1000B0009D0600089D0600089D0600089D06000894
:1000C0009D0600089D0600089D0600089D06000884
:1000D0009D0600089D0600089D0600089D06000874
:1000E0009D0600089D0600089D0600089D06000864
:1000F0009D0600089D0600089D0600089D06000854
:100100009D0600089D0600089D0600089D06000843
:100110009D0600089D0600089D0600089D06000833
:100120009D0600089D0600089D0600089D06000823
:100130009D0600089D0600089D0600089D06000813
:100140009D0600089D0600089D0600089D06000803
:100150009D0600089D0600089D0600089D060008F3
:100160009D0600089D0600089D0600089D060008E3
:100170009D0600089D060008D10900089D0600089C
:100180009D0600089D06000880B586B000AF4FF0C0
:1001900002004FF0010100F0C1FD4FF480004FF06C
:1001A000010100F013FE4FF48060C4F202004FF032
:1001B0000A014FF0040201F05DF84FF48060C4F2D0
:1001C00002004FF00B014FF0040201F053F84FF022
:1001D0000103BB754FF00003FB754FF002033B7545
:1001E0004FF440633B614FF002037B7507F110034E
:1001F0004FF48060C4F20200194600F091FF4FF402
:10020000D453C0F206033B604FF00003BB804BF6B3
:10021000FF73FB804FF000033B814FF480637B81D1
:100220004FF48043BB814FF4B040C4F200004FF064
:10023000010101F00BFC3B464FF4B040C4F200005A
:10024000194601F02DFB07F11807BD4680BD00BF20
:1002500080B582B000AF786013460A46FA70BB7072
:1002600000BF78684FF4003101F0E4FC0346002B36
:10027000F7D178684FF0010101F008FC00BF786801
:100280004FF00101C0F2030101F09CFC0346002B7A
:10029000F5D0FA78BB78786811461A4601F036FC3A
:1002A000BB78002B0BD100BF78684FF08201C0F201
:1002B000070101F087FC0346002BF5D00DE0BB7869
:1002C000012B0AD100BF78684FF00201C0F2030190
:1002D00001F078FC0346002BF5D007F10807BD4676
:1002E00080BD00BF80B582B000AF78600B46FB7068
:1002F000FB787868194601F047FC00BF78684FF03A
:100300008401C0F2070101F05DFC0346002BF5D02B
:1003100007F10807BD4680BD80B584B000AF7860A6
:1003200078684FF0000101F00FFC00BF78684FF0D3
:100330004001C0F2030101F045FC0346002BF5D05B
:10034000786801F031FC0346FB73FB7B184607F12C
:100350001007BD4680BD00BF80B582B000AF786099
:1003600078684FF0010101F0B1FB07F10807BD46C5
:1003700080BD00BF80B58AB000AF786039604FF0B3
:1003800000037B624FF000033B624FF00003FB6110
:100390004FF00003BB617B681B8A9BB27B627B6A68
:1003A00023F440537B623B68DB887A6A13437B62A9
:1003B0007B6A9AB27B681A827B689B899BB27B625C
:1003C0007B6A23F4B05323F00C037B623B689A886A
:1003D0003B681B8913439AB23B685B8913439BB20A
:1003E0007A6A13437B627B6A9AB27B689A817B68E4
:1003F0009B8A9BB27B627B6A23F440737B623B687F
:100400009B897A6A13437B627B6A9AB27B689A8281
:1004100007F10803184600F099FB7A684FF48053FF
:10042000C4F201039A4206D07A684FF4A053C4F292
:1004300001039A4202D17B693B6201E03B693B6266
:100440007B689B899BB29BB21BB2002B0FDA3A6A86
:1004500013464FEA83039B184FEA83029A183B68BE
:100460001B684FEA4303B2FBF3F3FB610EE03A6A09
:1004700013464FEA83039B184FEA83029A183B689E
:100480001B684FEA8303B2FBF3F3FB61FA6948F29E
:100490001F53C5F2EB13A3FB02134FEA53134FEAAA
:1004A00003137B627B6A4FEA13134FF0640202FB73
:1004B00003F3FA69D31ABB617B689B899BB29BB239
:1004C0001BB2002B12DABB694FEAC30303F13202FD
:1004D00048F21F53C5F2EB13A3FB02134FEA531369
:1004E00003F007037A6A13437B6211E0BB694FEAAA
:1004F000031303F1320248F21F53C5F2EB13A3FBBF
:1005000002134FEA531303F00F037A6A13437B621B
:100510007B6A9AB27B681A8107F12807BD4680BDC5
:1005200080B483B000AF78600B46FB70FB78002B83
:1005300008D07B689B899BB243F400539AB27B68D6
:100540009A8107E07B689B899BB223F400539AB29F
:100550007B689A8107F10C07BD4680BC704700BFDD
:1005600080B483B000AF78600B46FB70FB78002B43
:100570000AD07B689B899BB26FEA43436FEA53437F
:100580009AB27B689A8109E07B689B899BB24FEAAB
:1005900043434FEA53439AB27B689A8107F10C07B1
:1005A000BD4680BC704700BF80B483B000AF7860A8
:1005B0000B467B807B884FEAC3534FEAD3539AB2F2
:1005C0007B689A8007F10C07BD4680BC704700BF6E
:1005D00080B483B000AF78607B689B889BB24FEAA1
:1005E000C3534FEAD3539BB2184607F10C07BD46DD
:1005F00080BC704780B485B000AF78600B467B80CC
:100600004FF00003FB737B681B889AB27B88134012
:100610009BB2002B03D04FF00103FB7302E04FF0BD
:100620000003FB73FB7B184607F11407BD4680BC33
:10063000704700BF80B582B000AF42F2EC73C0F6E5
:1006400000037B6040F20003C2F200033B600BE05A
:100650007B681A683B681A603B6803F104033B60DF
:100660007B6803F104037B603A6840F21003C2F236
:1006700000039A42ECD3074807494FF00002884232
:10068000B8BF40F8042BFADB00F0EEF807F10807DA
:10069000BD4680BD1000002020C6002080B400AF01
:1006A000FEE700BF80B586B000AF4FF008004FF006
:1006B000010100F033FB4FF400304FF0010100F076
:1006C00085FB4FF44060C4F202004FF005014FF08B
:1006D000070200F0CFFD4FF44060C4F202004FF07B
:1006E00006014FF0070200F0C5FD4FF48840C4F248
:1006F00000004FF00101FFF733FF4FF00003BB751F
:100700004FF00103FB754FF002033B754FF02003E0
:100710003B614FF002037B7507F110034FF440601B
:10072000C4F20200194600F0FBFC4FF002033B75D7
:100730004FF040033B6107F110034FF44060C4F2F7
:100740000200194600F0ECFC4FF49F43C0F2120384
:100750003B604FF00003BB804FF00003FB804FF085
:1007600000033B814FF00003BB814FF00C037B8102
:100770003B464FF48840C4F200001946FFF7FAFDEB
:100780004FF48840C4F200004FF00101FFF7C8FEAB
:1007900007F11807BD4680BD80B584B000AF0346A1
:1007A000FB71FB79FB73FB7B9BB24FF48840C4F277
:1007B00000001946FFF7F8FE00BF4FF48840C4F26E
:1007C00000004FF04001FFF715FF0346002BF4D067
:1007D00007F11007BD4680BD80B584B000AF034669
:1007E000FB80FB88FB73FB884FEA13239BB2BB7330
:1007F000FB7B1846FFF7D0FFBB7B1846FFF7CCFF0B
:1008000007F11007BD4680BD80B584B000AF4FF042
:100810000003FB734FF004004FF0010100F07EFA7B
:100820004FF400737B604FF003037B724FF00203C1
:100830003B724FF00003BB724FF00103FB7207F1F4
:1008400004034FF40060C4F20200194600F068FC93
:100850004FF040404FF0405100F054F9FB7B1846F8
:1008600007F11007BD4680BD80B58EB000AF00F027
:1008700057FDFFF717FFFFF787FCFFF7C5FF01F0F4
:1008800035FE01F00FFB4FF000037B604FF00003DB
:10089000BB604FF00003FB604FF000033B614FF083
:1008A00000037B614FF00003BB614FF00003FB616D
:1008B0004FF000033B624FF000037B637BE07AE084
:1008C0007B6B03F101037B637B6B082B02D14FF041
:1008D00000037B634FF48840C4F20000FFF778FE0A
:1008E00003461A467B6B4FEA830307F13801CB18A6
:1008F00043F8342C7B6B4FEA830307F13802D3189B
:1009000053F8343C0A2B00D100BF7B6B4FEA8303C2
:1009100007F13801CB1853F8343C0A2B4BD17B6BD1
:1009200003F1FF334FEA830307F13802D31853F87A
:10093000343C0D2B3FD1BB68FB62FB68BB623B695B
:100940007B62FB6A312B02D0322B0CD017E04FF0C8
:10095000010000F0E7FA4FF0010000F009FB4FF052
:1009600000037B630FE0BB6ADAB27B6ADBB210463E
:10097000194601F065FA4FF000037B6303E04FF086
:1009800000037B6300BF4FF000037B634FF0000365
:100990003B630DE03B6B4FEA830307F13801CB1853
:1009A0004FF0000243F8342C3B6B03F101033B632F
:1009B0003B6B072BEED94FF48840C4F2000040F2A5
:1009C0002551FFF717FE0346002B7FF479AF76E73A
:1009D00080B582B000AF40F21003C2F200031B6882
:1009E00003F1010240F21003C2F200031A604FF05B
:1009F000010000F05FFB0346002B34D072B64FF0CD
:100A00000003FB8010E0FB8803F1020240F22003A8
:100A1000C2F2000333F812309BB21846FFF7DCFE37
:100A2000FB8803F10103FB80FA8846F2FF239A4218
:100A3000E9D962B64FF0000000F074FA4FF0000000
:100A400000F096FA40F21403C2F200031B6803F1AF
:100A5000010240F21403C2F200031A604FF00100D9
:100A600000F04EFB4AE04FF0080000F0D5FA0346D4
:100A7000012B2CD140F21803C2F200031B6803F1D2
:100A8000010240F21803C2F200031A604FF008009E
:100A900000F000FB40F21003C2F200034FF000022E
:100AA0001A6040F21403C2F200034FF000021A6011
:100AB00040F21803C2F200034FF000021A6040F245
:100AC0001C03C2F200034FF000021A6016E04FF060
:100AD000100000F0A1FA0346012B0FD140F21C03D5
:100AE000C2F200031B6803F1010240F21C03C2F2D0
:100AF00000031A604FF0100000F0CCFA07F108076D
:100B0000BD4680BD80B485B000AF786039604FF0DD
:100B10000003FB604FF46053C4F202039B68FB6068
:100B2000FB6823F07843FB607A683B681343FA68FC
:100B30001343FB604FF46053C4F20203FA689A60F7
:100B400007F11407BD4680BC704700BF80B489B070
:100B500000AF78604FF00003BB614FF000037B6192
:100B60004FF00003FB614FF002033B614FF00003C5
:100B7000FB604FF00203BB604FF46053C4F202030A
:100B80009B6803F00C03BB61BB69042B0AD0082BE4
:100B90000FD0002B62D17A684FF41053C0F2F403E7
:100BA000136062E07A684FF49053C0F27A031360E6
:100BB0005BE04FF46053C4F202035B6803F480030C
:100BC0004FEA9353FB604FF46053C4F202035B6837
:100BD00003F03F03BB60FB68002B15D04FF490532C
:100BE000C0F27A03BA68B3FBF2F24FF46053C4F276
:100BF00002035B68194647F6C0730B404FEA931334
:100C000003FB02F3FB6114E04FF41053C0F2F40352
:100C1000BA68B3FBF2F24FF46053C4F202035B68AC
:100C2000194647F6C0730B404FEA931303FB02F3D8
:100C3000FB614FF46053C4F202035B6803F440337A
:100C40004FEA134303F101034FEA43033B61FA699F
:100C50003B69B2FBF3F27B681A6006E07A684FF4F6
:100C60001053C0F2F403136000BF4FF46053C4F29A
:100C700002039B6803F0F003BB61BB694FEA1313E7
:100C8000BB6140F20003C2F20003BA699B181B78F3
:100C9000DBB27B617B681A687B6922FA03F27B68AE
:100CA0005A604FF46053C4F202039B6803F4E053AC
:100CB000BB61BB694FEA9323BB6140F20003C2F200
:100CC0000003BA699B181B78DBB27B617B685A68AA
:100CD0007B6922FA03F27B689A604FF46053C4F296
:100CE00002039B6803F46043BB61BB694FEA533363
:100CF000BB6140F20003C2F20003BA699B181B7883
:100D0000DBB27B617B685A687B6922FA03F27B68FD
:100D1000DA6007F12407BD4680BC704780B483B019
:100D200000AF78600B46FB70FB78002B0DD04FF4C2
:100D30006053C4F202034FF46052C4F20202126B19
:100D400011467A680A431A630EE04FF46053C4F206
:100D500002034FF46052C4F20202126B11467A6829
:100D60006FEA02020A401A6307F10C07BD4680BC15
:100D7000704700BF80B483B000AF78600B46FB7053
:100D8000FB78002B0DD04FF46053C4F202034FF4F4
:100D90006052C4F20202526B11467A680A435A63E7
:100DA0000EE04FF46053C4F202034FF46052C4F2F9
:100DB0000202526B11467A686FEA02020A405A63D5
:100DC00007F10C07BD4680BC704700BF80B483B0FC
:100DD00000AF78600B46FB70FB78002B0DD04FF412
:100DE0006053C4F202034FF46052C4F20202126C68
:100DF00011467A680A431A640EE04FF46053C4F255
:100E000002034FF46052C4F20202126C11467A6877
:100E10006FEA02020A401A6407F10C07BD4680BC63
:100E2000704700BF80B400AF4FF00003C5F2050368
:100E30004FF000021A604FF00003C5F205034FF0B7
:100E40000002DA604FF00003C5F205034FF01F0205
:100E50005A614FF00003C5F205034FF000029A619A
:100E60004FF00003C5F205034FF00002DA614FF0C6
:100E70000003C5F205034FF000021A624FF00003B1
:100E8000C5F205034FF000025A62BD4680BC7047B0
:100E900080B485B000AF78604FF00003FB604FF086
:100EA0000003C5F205034FF00002C5F20502126807
:100EB00022F4804222F001021A604FF00003C5F2D2
:100EC00005031B68FB60FB6823F47E6323F01203B9
:100ED000FB607B681A887B685B8813439AB27B68E7
:100EE0009B8813439AB27B68DB8813439AB27B6872
:100EF0001B8913439AB27B685B8913439AB27B6860
:100F00009B8913439BB2FA681343FB604FF00003C5
:100F1000C5F20503FA681A6007F11407BD4680BCE4
:100F2000704700BF80B483B000AF0346FB71FB790C
:100F3000002B0CD04FF00003C5F205034FF0000268
:100F4000C5F20502126842F480421A600BE04FF0CD
:100F50000003C5F205034FF00002C5F20502126856
:100F600022F480421A6007F10C07BD4680BC70472E
:100F700080B483B000AF0346FB71FB79002B0CD02B
:100F80004FF00003C5F205034FF00002C5F2050261
:100F9000126842F001021A600BE04FF00003C5F244
:100FA00005034FF00002C5F20502126822F00102AB
:100FB0001A6007F10C07BD4680BC704780B483B04F
:100FC00000AF02460B46FA807B717B79002B0DD077
:100FD0004FF00003C5F205034FF00002C5F2050211
:100FE000D2681146FA880A43DA600FE04FF0000336
:100FF000C5F205034FF00002C5F20502D2681146A2
:10100000FA886FEA020292B20A40DA6007F10C072E
:10101000BD4680BC704700BF80B487B000AF0346B8
:10102000FB804FF00003FB754FF000033B61FB8832
:101030004FEA13339BB2FB60FB68012B06D14FF0E4
:101040000003C5F205039B683B610FE0FB68022BC0
:1010500006D14FF00003C5F205035B683B6105E074
:101060004FF00003C5F205031B693B61FA883B6939
:101070001340002B03D04FF00103FB7502E04FF04B
:101080000003FB75FB7D184607F11C07BD4680BCBD
:10109000704700BF80B483B000AF0346FB804FF0C1
:1010A0000003C5F20503FA885A6107F10C07BD4633
:1010B00080BC704780B485B000AF0346FB804FF022
:1010C0000003FB734FF00003BB604FF00003C5F259
:1010D00005031B691A46FB881340BB60BB68002BE5
:1010E00003D04FF00103FB7302E04FF00003FB73EA
:1010F000FB7B184607F11407BD4680BC704700BF54
:1011000080B483B000AF0346FB804FF00003C5F20C
:101110000503FA885A6107F10C07BD4680BC704789
:1011200080B487B000AF786039604FF000037B6116
:101130004FF000033B614FF00003FB604FF00003F2
:101140007B618EE07B694FF0010202FA03F33B61A1
:101150003B681A683B691340FB60FA683B699A4236
:101160007BD17B681B681A467B694FEA43034FF0CB
:10117000030101FA03F36FEA03031A407B681A6064
:101180007B681B681A463B681B7919467B694FEAE6
:10119000430301FA03F31A437B681A603B681B7927
:1011A000012B03D03B681B79022B38D17B689B68ED
:1011B0001A467B694FEA43034FF0030101FA03F338
:1011C0006FEA03031A407B689A607B689B681A4643
:1011D0003B685B7919467B694FEA430301FA03F3E5
:1011E0001A437B689A607B685B681A467B699BB28E
:1011F0004FF0010101FA03F36FEA03031A407B6821
:101200005A607B685B681A463B689B7919467B6924
:101210009BB201FA03F39BB21A437B685A607B6866
:10122000DB681A467B699BB24FEA43034FF0030128
:1012300001FA03F36FEA03031A407B68DA607B6804
:10124000DB681A463B68DB7919467B694FEA430342
:1012500001FA03F31A437B68DA607B6903F1010347
:101260007B617B690F2B7FF66DAF07F11C07BD46D5
:1012700080BC704780B485B000AF786013460A46E2
:101280007A807B704FF00003FB604FF00003BB607F
:101290007A787B8803F007034FEA830302FA03F3AB
:1012A000FB607B884FEAD3039BB21A467B884FEAE8
:1012B000D3039BB219467B6801F1080153F8213032
:1012C00019467B8803F007034FEA83034FF00F00B2
:1012D00000FA03F36FEA030319407B6802F1080286
:1012E00043F822107B884FEAD3039BB21A467B68EF
:1012F00002F1080253F822301A46FB681343BB6020
:101300007B884FEAD3039BB21A467B6802F108023E
:10131000B96843F8221007F11407BD4680BC704736
:1013200080B500AF4FF46053C4F202034FF4605233
:10133000C4F20202126842F001021A604FF46053D4
:10134000C4F202034FF000029A604FF46053C4F2FB
:1013500002034FF46052C4F20202126822F0847257
:1013600022F480321A604FF46053C4F2020343F255
:101370001002C2F200425A604FF46053C4F20203FA
:101380004FF46052C4F20202126822F480221A6002
:101390004FF46053C4F202034FF00002DA6000F031
:1013A00009F84FF46D43CEF200034FF000629A60EB
:1013B00080BD00BF80B483B000AF4FF000037B60FE
:1013C0004FF000033B604FF46053C4F202034FF44C
:1013D0006052C4F20202126842F480321A604FF482
:1013E0006053C4F202031B6803F400333B607B6864
:1013F00003F101037B603B68002B03D17B68B3F5ED
:10140000A06FECD14FF46053C4F202031B6803F4E5
:101410000033002B03D04FF001033B6002E04FF09C
:1014200000033B603B68012B40F082804FF4605327
:10143000C4F202034FF46052C4F20202126C42F092
:1014400080521A644FF4E043C4F200034FF4E042C8
:10145000C4F20002126842F480421A604FF46053F2
:10146000C4F202034FF46052C4F2020292689A601E
:101470004FF46053C4F202034FF46052C4F202020C
:10148000926842F400429A604FF46053C4F202033F
:101490004FF46052C4F20202926842F4A0529A6081
:1014A0004FF46053C4F2020345F21942C0F2407295
:1014B0005A604FF46053C4F202034FF46052C4F216
:1014C0000202126842F080721A6000BF4FF460534B
:1014D000C4F202031B6803F00073002BF6D04FF434
:1014E0007053C4F2020340F205621A604FF4605375
:1014F000C4F202034FF46052C4F20202926822F076
:1015000003029A604FF46053C4F202034FF4605236
:10151000C4F20202926842F002029A6000BF4FF4E5
:101520006053C4F202039B6803F00C03082BF6D14E
:1015300007F10C07BD4680BC704700BF80B483B084
:1015400000AF78607B681B6823F001027B681A603B
:101550007B684FF000021A607B684FF000025A600F
:101560007B684FF000029A607B684FF00002DA60FF
:101570007B684FF000021A617B684FF021025A61CC
:101580007A6846F21003C4F202039A4207D14FF47C
:10159000C043C4F202034FF03D029A60EBE07A6868
:1015A00046F22803C4F202039A4207D14FF4C04323
:1015B000C4F202034FF474629A60DCE07A6846F287
:1015C0004003C4F202039A4207D14FF4C043C4F26D
:1015D00002034FF474129A60CDE07A6846F2580321
:1015E000C4F202039A4207D14FF4C043C4F202038B
:1015F0004FF074629A60BEE07A6846F27003C4F2FB
:1016000002039A4209D14FF4C043C4F202034FF0DF
:101610003D02C2F20002DA60ADE07A6846F2880369
:10162000C4F202039A4209D14FF4C043C4F2020348
:101630004FF47462C2F20002DA609CE07A6846F20B
:10164000A003C4F202039A4209D14FF4C043C4F28A
:1016500002034FF00002C2F23D02DA608BE07A68CA
:1016600046F2B803C4F202039A4207D14FF4C043D2
:10167000C4F202034FF03D52DA607CE07A6846F231
:101680001043C4F202039A4207D14FF4C843C4F294
:1016900002034FF03D029A606DE07A6846F22843FB
:1016A000C4F202039A4207D14FF4C843C4F20203C2
:1016B0004FF474629A605EE07A6846F24043C4F286
:1016C00002039A4207D14FF4C843C4F202034FF415
:1016D00074129A604FE07A6846F25843C4F20203EB
:1016E0009A4207D14FF4C843C4F202034FF0746228
:1016F0009A6040E07A6846F27043C4F202039A426C
:1017000009D14FF4C843C4F202034FF03D02C2F2C4
:101710000002DA602FE07A6846F28843C4F20203DE
:101720009A4209D14FF4C843C4F202034FF47462E1
:10173000C2F20002DA601EE07A6846F2A043C4F208
:1017400002039A4209D14FF4C843C4F202034FF096
:101750000002C2F23D02DA600DE07A6846F2B84358
:10176000C4F202039A4206D14FF4C843C4F2020302
:101770004FF03D52DA6007F10C07BD4680BC704760
:1017800080B485B000AF786039604FF00003FB6033
:101790007B681B68FB60FA6848F23F03CFF21C03CA
:1017A0001340FB603B681A683B68DB681A433B6880
:1017B0005B691A433B689B691A433B68DB691A43C0
:1017C0003B681B6A1A433B685B6A1A433B689B6A27
:1017D0001A433B685B6B1A433B689B6B1343FA6885
:1017E0001343FB607B68FA681A607B685B69FB6087
:1017F000FB6823F00703FB603B68DA6A3B681B6BFE
:101800001343FA681343FB607B68FA685A613B68CC
:101810001A697B685A603B685A687B689A603B68C3
:101820009A687B68DA6007F11407BD4680BC704790
:1018300080B483B000AF78600B46FB70FB78002B60
:1018400006D07B681B6843F001027B681A6005E0E4
:101850007B681B6823F001027B681A6007F10C07A4
:10186000BD4680BC704700BF80B485B000AF7860D3
:101870004FF00003FB737B681B6803F00103DBB2CE
:10188000002B03D04FF00103FB7302E04FF0000385
:10189000FB73FB7B184607F11407BD4680BC7047FD
:1018A00080B58AB000AF786039604FF00003FB84E8
:1018B0004FF000037B844FF00403BB844FF490533C
:1018C000C0F27A03FB617B689B88FB84FB8C23F06E
:1018D0003F03FB8407F10C031846FFF737F97B69D8
:1018E000FB61FA694DF68363C4F21B33A3FB021359
:1018F0004FEA93437B84FA8C7B8C1343FB847B6895
:10190000FA8C9A807B681B889BB223F001039AB201
:101910007B681A804FF00003FB843B681A6848F22A
:10192000A063C0F201039A4218D83B681B684FEAD3
:101930004303FA69B2FBF3F3BB84BB8C032B02D8DD
:101940004FF00403BB84FA8CBB8C1343FB847B8C69
:1019500003F101039AB27B681A844BE03B68DA8892
:101960004BF6FF739A420AD13B681A6813464FEA56
:1019700043039B18FA69B2FBF3F3BB8410E03B68A6
:101980001A6813464FEA83039B184FEA83029B1899
:10199000FA69B2FBF3F3BB84BB8C43F48043BB8492
:1019A000BB8C4FEA03534FEA1353002B03D1BB8C7C
:1019B00043F00103BB84BA8CFB8C13439BB26FEAE8
:1019C00043436FEA5343FB847B8C4FF4967202FBD4
:1019D00003F244F6D353C1F2620383FB02134FEACE
:1019E000A3114FEAE273CB1A9BB203F101039AB23F
:1019F0007B681A847B68FA8C9A837B681B889BB20D
:101A000043F001039AB27B681A807B681B88FB84D1
:101A1000FB8C23F4806323F00A03FB843B689A88E1
:101A20003B685B8913439AB2FB8C1343FB847B684E
:101A3000FA8C1A803B689A893B681B8913439AB2D7
:101A40007B681A8107F12807BD4680BD80B483B04A
:101A500000AF78600B46FB70FB78002B08D07B68EA
:101A60001B889BB243F001039AB27B681A8007E09F
:101A70007B681B889BB223F001039AB27B681A80B3
:101A800007F10C07BD4680BC704700BF80B483B02F
:101A900000AF78600B46FB70FB78002B08D07B68AA
:101AA0001B889BB243F480739AB27B681A8007E06C
:101AB0007B681B889BB223F480739AB27B681A8080
:101AC00007F10C07BD4680BC704700BF80B483B0EF
:101AD00000AF78600B46FB70FB78002B08D07B686A
:101AE0001B889BB243F400739AB27B681A8007E0AC
:101AF0007B681B889BB223F400739AB27B681A80C0
:101B000007F10C07BD4680BC704700BF80B483B0AE
:101B100000AF786013460A46FA70BB70BB78002BA2
:101B200004D0FB7843F00103FB7003E0FB7823F063
:101B30000103FB70FB789AB27B681A8207F10C07ED
:101B4000BD4680BC704700BF80B483B000AF7860F2
:101B50000B46FB70FB78002B08D07B681B889BB280
:101B600043F480639AB27B681A8007E07B681B8825
:101B70009BB223F480639AB27B681A8007F10C074A
:101B8000BD4680BC704700BF80B483B000AF7860B2
:101B90000B46FB70FB789AB27B681A8207F10C0740
:101BA000BD4680BC704700BF80B483B000AF786092
:101BB0007B681B8A9BB2DBB2184607F10C07BD4657
:101BC00080BC704780B487B000AF786039604FF058
:101BD00000033B614FF00003FB604FF00003BB606C
:101BE0004FF00003FB757B689B8A9BB2FB607B68B0
:101BF0001B8B9BB2BB60BB684FEA0343BB60FA68B8
:101C0000BB68134323F07F433B613A693B681A404A
:101C10003B689A4203D14FF00103FB7502E04FF09D
:101C20000003FB75FB7D184607F11C07BD4680BC11
:101C3000704700BF80B487B000AF786039604FF064
:101C40000003FB754FF000033B614FF00003FB60A6
:101C50007B68FB603B684FEA13733B613B6823F092
:101C60007F433B603B69002B04D0FB6803F1140306
:101C7000FB6007E03B684FEA13433B60FB6803F1FE
:101C80001803FB60FB681A683B681340002B03D005
:101C90004FF00103FB7502E04FF00003FB75FB7D85
:101CA000184607F11C07BD4680BC704780B485B05C
:101CB00000AF78604FF00003FB734FF00003BB737D
:101CC0004FF00F037B737B68DB78002B45D04FF41C
:101CD0006D43CEF20003DB686FEA030303F4E063B5
:101CE0004FEA1323FB73FB7BC3F10403BB737A7BC3
:101CF000FB7B42FA03F37B737B685B781A46BB7B02
:101D000002FA03F3FB737B689A787B7B1340DAB2A9
:101D1000FB7B1343FB73FB7B4FEA0313FB734FF413
:101D20006143CEF200037A6812789B18FA7B83F83D
:101D300000234FF46143CEF200037A6812784FEA31
:101D40005212D2B27968097801F01F014FF00100F8
:101D500000FA01F143F8221014E04FF46143CEF28F
:101D600000037A6812784FEA5212D2B27968097881
:101D700001F01F014FF0010000FA01F102F1200211
:101D800043F8221007F11407BD4680BC704700BF1E
:101D900080B483B000AF786004E07B6803F1FF3368
:101DA0007B6000BF7B68012BF7D807F10C07BD46AD
:101DB00080BC704780B584B000AF0346FB714FF024
:101DC0000003FB734FF4B040C4F200004FF0420137
:101DD0004FF00002FEF73CFAFB794FF4B040C4F23A
:101DE00000001946FEF77EFA4FF4B040C4F200003E
:101DF000FEF7B2FA4FF47A70FFF7CAFF4FF4B04023
:101E0000C4F200004FF043014FF00102FEF720FA48
:101E10004FF4B040C4F20000FEF77EFA0346FB73B5
:101E20004FF4B040C4F20000FEF796FA4FF47A7017
:101E3000FFF7AEFFFB7B184607F11007BD4680BDDC
:101E400080B582B000AF02460B46FA71BB714FF409
:101E5000B040C4F200004FF042014FF00002FEF724
:101E6000F7F9FB794FF4B040C4F200001946FEF7D1
:101E700039FABB794FF4B040C4F200001946FEF7BE
:101E800031FA4FF4B040C4F20000FEF765FA4FF4A7
:101E90007A70FFF77DFF4FF00003184607F108073F
:101EA000BD4680BD80B586B000AF4FF4E4737B6162
:101EB0004FF018033B614FF00E03FB604FF4F773D4
:101EC000BB604FF00A00FFF775FF0346762B02D088
:101ED0004FF0010305E34FF012004FF08001FFF7D0
:101EE000AFFF4FF011004FF00101FFF7A9FF4FF0D6
:101EF00012004FF00001FFF7A3FF7B694FEAE303F5
:101F0000DBB24FF017001946FFF79AFF3B694FEA23
:101F1000E303DBB24FF018001946FFF791FF4FF0D3
:101F20003200FFF747FF0346FB71FB7923F03F03C5
:101F3000DAB23B6903F007034FEAC303DBB2134392
:101F4000DAB27B69DBB203F00703DBB21343DBB227
:101F5000FB71FB794FF032001946FFF771FFFB6808
:101F60004FEAA303DBB24FF019001946FFF768FFF1
:101F7000BB684FEAA303DBB24FF01A001946FFF724
:101F80005FFF4FF00300FFF715FF0346FB71FB797E
:101F900023F00F03DAB2BB6803F003034FEA8303B5
:101FA000DBB21343DAB2FB68DBB203F00303DBB24C
:101FB0001343DBB2FB71FB794FF003001946FFF7C7
:101FC0003FFF4FF00C004FF00C01FFF739FF4FF0CF
:101FD0003E004FF01101FFF733FF4FF073004FF059
:101FE000F101FFF72DFF4FF0A2004FF05201FFF774
:101FF00027FF4FF07B004FF01C01FFF721FF4FF050
:102000007C004FF02801FFF71BFF4FF07D004FF0E1
:102010003C01FFF715FF4FF07F004FF06901FFF71C
:102020000FFF4FF014004FF03801FFF709FF4FF09A
:10203000A1004FF00B01FFF703FF4FF074004FF0CA
:102040001901FFF7FDFE4FF09A004FF08001FFF7F6
:10205000F7FE4FF043004FF01401FFF7F1FE4FF091
:102060003D004FF0C001FFF7EBFE4FF070004FF066
:102070003A01FFF7E5FE4FF071004FF03501FFF731
:10208000DFFE4FF072004FF01101FFF7D9FE4FF065
:102090007A004FF02001FFF7D3FE4FF07B004FF0A6
:1020A0001001FFF7CDFE4FF07C004FF01E01FFF74F
:1020B000C7FE4FF07D004FF03501FFF7C1FE4FF036
:1020C0007E004FF05A01FFF7BBFE4FF07F004FF04C
:1020D0006901FFF7B5FE4FF080004FF07601FFF782
:1020E000AFFE4FF081004FF08001FFF7A9FE4FF0E7
:1020F00082004FF08801FFF7A3FE4FF083004FF0FE
:102100008F01FFF79DFE4FF084004FF09601FFF71F
:1021100097FE4FF085004FF0A301FFF791FE4FF0BF
:1021200086004FF0AF01FFF78BFE4FF087004FF0B6
:10213000C401FFF785FE4FF088004FF0D701FFF78D
:102140007FFE4FF089004FF0E801FFF779FE4FF076
:1021500013004FF0E001FFF773FE4FF000004FF067
:102160000001FFF76DFE4FF010004FF00001FFF788
:1021700067FE4FF00D004FF04001FFF761FE4FF09A
:1021800014004FF01801FFF75BFE4FF0A5004FF071
:102190000501FFF755FE4FF0AB004FF00701FFF7C9
:1021A0004FFE4FF024004FF09501FFF749FE4FF02E
:1021B00025004FF03301FFF743FE4FF026004FF0AC
:1021C000E301FFF73DFE4FF09F004FF07801FFF76E
:1021D00037FE4FF0A0004FF06801FFF731FE4FF0DF
:1021E000A1004FF00301FFF72BFE4FF0A6004FF0C8
:1021F000D801FFF725FE4FF0A7004FF0D801FFF7F9
:102200001FFE4FF0A8004FF0F001FFF719FE4FF04E
:10221000A9004FF09001FFF713FE4FF0AA004FF016
:102220009401FFF70DFE4FF013004FF0E501FFF7AB
:1022300007FE4FF00E004FF06101FFF701FE4FF077
:102240000F004FF04B01FFF7FBFD4FF016004FF072
:102250000201FFF7F5FD4FF01E004FF00701FFF7F9
:10226000EFFD4FF021004FF00201FFF7E9FD4FF0C5
:1022700022004FF09101FFF7E3FD4FF029004FF0EE
:102280000701FFF7DDFD4FF033004FF00B01FFF7C3
:10229000D7FD4FF035004FF00B01FFF7D1FD4FF0A8
:1022A00037004FF01D01FFF7CBFD4FF038004FF026
:1022B0007101FFF7C5FD4FF039004FF02A01FFF71C
:1022C000BFFD4FF03C004FF07801FFF7B9FD4FF034
:1022D0004D004FF04001FFF7B3FD4FF04E004FF0BF
:1022E0002001FFF7ADFD4FF069004FF00001FFF74F
:1022F000A7FD4FF06B004FF04A01FFF7A1FD4FF033
:1023000074004FF01001FFF79BFD4FF08D004FF070
:102310004F01FFF795FD4FF08E004FF00001FFF7E2
:102320008FFD4FF08F004FF00001FFF789FD4FF058
:1023300090004FF00001FFF783FD4FF091004FF048
:102340000001FFF77DFD4FF096004FF00001FFF711
:1023500077FD4FF09A004FF00001FFF771FD4FF04D
:10236000B0004FF08401FFF76BFD4FF0B1004FF06C
:102370000C01FFF765FD4FF0B2004FF00E01FFF7C3
:102380005FFD4FF0B3004FF08201FFF759FD4FF0B2
:10239000B8004FF00A01FFF753FD4FF04F004FF028
:1023A0008001FFF74DFD4FF050004FF08001FFF727
:1023B00047FD4FF051004FF00001FFF741FD4FF096
:1023C00052004FF02201FFF73BFD4FF053004FF05A
:1023D0005E01FFF735FD4FF054004FF08001FFF72D
:1023E0002FFD4FF058004FF09E01FFF729FD4FF0F1
:1023F00043004FF00A01FFF723FD4FF044004FF078
:10240000F001FFF71DFD4FF045004FF03401FFF7DD
:1024100017FD4FF046004FF05801FFF711FD4FF048
:1024200047004FF02801FFF70BFD4FF048004FF039
:102430003A01FFF705FD4FF059004FF08801FFF713
:10244000FFFC4FF05A004FF08801FFF7F9FC4FF006
:102450005B004FF04401FFF7F3FC4FF05C004FF0DE
:102460006701FFF7EDFC4FF05D004FF04901FFF70A
:10247000E7FC4FF05E004FF00E01FFF7E1FC4FF07C
:102480006C004FF00A01FFF7DBFC4FF06D004FF0DE
:102490005501FFF7D5FC4FF06E004FF01101FFF72B
:1024A000CFFC4FF06F004FF09F01FFF7C9FC4FF0DA
:1024B0006A004FF04001FFF7C3FC4FF001004FF0FE
:1024C0004001FFF7BDFC4FF002004FF06001FFF745
:1024D000B7FC4FF013004FF0E701FFF7B1FC4FF0EE
:1024E0000003184607F11807BD4680BD80B598B0B7
:1024F00000AF4FF4A063BB604FF017004FF0010135
:10250000FEF70CFC4FF00000C4F202004FF0040193
:102510004FF00D02FEF7AEFE4FF00000C4F20200D5
:102520004FF006014FF00D02FEF7A4FE4FF480605D
:10253000C4F202004FF006014FF00D02FEF79AFEC2
:102540004FF48060C4F202004FF007014FF00D021B
:10255000FEF790FE4FF48060C4F202004FF00801D5
:102560004FF00D02FEF786FE4FF48060C4F20200C9
:102570004FF009014FF00D02FEF77CFE4FF40060B2
:10258000C4F202004FF00B014FF00D02FEF772FE95
:102590004FF40060C4F202004FF006014FF00D024C
:1025A000FEF768FE4FF40060C4F202004FF007012E
:1025B0004FF00D02FEF75EFE4FF48050C4F20200B1
:1025C0004FF000014FF00D02FEF754FE4FF4805023
:1025D000C4F202004FF001014FF00D02FEF74AFE77
:1025E0004FF48A63BB654FF0020387F85C304FF00D
:1025F000030387F85D304FF0000387F85E304FF03B
:10260000000387F85F3007F158034FF00000C4F271
:1026100002001946FEF784FD4FF47073BB6507F1A5
:1026200058034FF48060C4F202001946FEF778FDAB
:102630004FF40C63BB6507F158034FF40060C4F21C
:1026400002001946FEF76CFD4FF00303BB6507F16E
:1026500058034FF48050C4F202001946FEF760FDA3
:102660004FF001004FF00101FEF784FBFEF7DAFBAB
:102670004FF00003BB814FF00003FB824FF00003DB
:102680003B834FF00003BB824FF020033B824FF0AF
:102690000003FB814FF080037B8207F10C03184697
:1026A000FEF7F6FB4FF480004FF00101FEF736FB1A
:1026B00046F2B840C4F20200FEF740FF00BF46F207
:1026C000B840C4F20200FFF7CFF80346002BF6D162
:1026D0004FF00073FB614FF02803C5F205033B6226
:1026E00040F22003C2F200037B624FF00003BB62A2
:1026F0004FF44653FB624FF000033B634FF480639B
:102700007B634FF48053BB634FF40053FB634FF480
:1027100080733B644FF400337B644FF00403BB646D
:102720004FF00303FB644FF000033B654FF00003E1
:102730007B6507F11C0346F2B840C4F2020019465B
:10274000FFF71EF84FF4A063BB6000BF46F2B8402D
:10275000C4F20200FFF788F80346012B0AD0BB68D9
:10276000002B0CBF00220122D2B203F1FF33BB6069
:10277000002AEBD1BB68002B00D1FEE74FF04E03DF
:102780003B714FF000037B714FF00003BB714FF0C2
:102790000103FB7107F104031846FFF787FA4FF0B6
:1027A00001004FF00101FEF709FC4FF008004FF067
:1027B0000101FEF703FC4FF010004FF00101FEF79E
:1027C000FDFB4FF00100FEF7ADFB4FF00100FEF7FF
:1027D000CFFB46F2B840C4F202004FF00101FFF710
:0C27E00027F807F16007BD4680BD00BF70
:1027EC0000000000010203040102030406070809AB
:0400000508000000EF
:00000001FF
