:020000040800F2
:1000000024CE0020F50200085D0300085D0300080F
:100010005D0300085D0300085D03000800000000A8
:100020000000000000000000000000005D03000868
:100030005D030008000000005D0300085D03000888
:100040005D0300085D0300085D0300085D03000810
:100050005D0300085D0300085D0300085D03000800
:100060005D0300085D0300085D0300085D030008F0
:100070005D0300085D0300085D0300085D030008E0
:100080005D0300085D0300085D0300085D030008D0
:100090005D0300085D0300085D0300085D030008C0
:1000A0005D0300085D0300085D0300085D030008B0
:1000B0005D0300085D0300085D0300085D030008A0
:1000C0005D0300085D0300085D0300085D03000890
:1000D0005D0300085D0300085D0300085D03000880
:1000E0005D0300085D0300085D0300085D03000870
:1000F0005D0300085D0300085D0300085D03000860
:100100005D0300085D0300085D0300085D0300084F
:100110005D0300085D0300085D0300085D0300083F
:100120005D0300085D0300085D0300085D0300082F
:100130005D0300085D0300085D0300085D0300081F
:100140005D0300085D0300085D0300085D0300080F
:100150005D0300085D0300085D0300085D030008FF
:100160005D0300085D0300085D0300085D030008EF
:100170005D0300085D030008E50500085D03000855
:100180005D0300085D03000830B585B004460D46E8
:10019000038A23F440534FEA03434FEA1343CA88C8
:1001A00013430382838923F4B05323F00C034FEAF3
:1001B00003434FEA13430989AA880A4369890A431A
:1001C00092B213438381838A23F440734FEA03433B
:1001D0004FEA1343AA8913438382684600F078FAF2
:1001E0004FF48053C4F201039C4205D04FF4A05356
:1001F000C4F201039C4201D1039A00E0029AA38950
:100200001BB2002B09DA02EB820202EB82022B689E
:100210004FEA4303B2FBF3F208E002EB820202EB87
:10022000820229684FEA8101B2FBF1F248F21F53C2
:10023000C5F2EB13A3FB02134FEA53134FEA031566
:100240004FF0640003FB1023A08900B200280DDAF0
:100250004FEAC30303F1320348F21F51C5F2EB1119
:10026000A1FB0321C1F3421129430CE04FEA031320
:1002700003F1320348F21F51C5F2EB11A1FB032138
:10028000C1F34311294389B2218105B030BD00BFBC
:1002900029B183899BB243F40053838170478389DA
:1002A00023F400534FEA03434FEA1343838170471B
:1002B00039B183896FEA43436FEA53439BB2838129
:1002C000704783894FEA43434FEA53438381704722
:1002D0004FEAC1514FEAD1518180704780884FEA7F
:1002E000C0504FEAD0507047038819420CBF00201D
:1002F0000120704708B5144B144A9A4211D240F6B7
:100300000C72C0F6000240F20003C2F2000340F299
:100310001400C2F2000052F8041B43F8041B83428D
:10032000F9D30B480B494FF000028842B8BF40F8A0
:10033000042BFADBDFF82000016841F47001016052
:1003400000F004F908BD00BF1400002000000020E8
:100350001400002024C6002088ED00E0FEE700BF66
:100360002DE9F04186B04FF008004FF0010100F098
:100370001BFA4FF400304FF0010100F027FA4FF460
:100380004064C4F2020420464FF005014FF007021A
:1003900000F018FB20464FF006014FF0070200F076
:1003A00011FB4FF48845C4F2000528464FF00101C7
:1003B000FFF77EFF4FF000068DF816604FF0010842
:1003C0008DF817804FF002078DF814704FF020035E
:1003D00004938DF81570204604A900F095FA8DF865
:1003E00014704FF040030493204604A900F08CFAE7
:1003F0004FF49F43C0F212030093ADF80460ADF8D0
:100400000660ADF80860ADF80C604FF00C03ADF875
:100410000A3028466946FFF7B7FE28464146FFF7EF
:1004200037FF06B0BDE8F08138B501464FF488408B
:10043000C4F20000FFF74CFF4FF48844C4F20004FC
:100440004FF0400520462946FFF74EFF0028F9D01F
:1004500038BD00BF10B50446C0B2FFF7E5FF4FEA54
:100460001420FFF7E1FF10BD012804D900F1FF308F
:1004700000BF0128FAD1704770B58AB04FF0000470
:10048000C4F20104204600F061FB4FF00100014678
:1004900000F0AEF94FF010004FF0010100F084F9C8
:1004A0004FF4007300934FF002038DF804304FF0C7
:1004B00003028DF805204FF000068DF806608DF8D8
:1004C00007304FF48055C4F202052846694600F013
:1004D0001BFA28464FF009014FF0010200F072FAB2
:1004E0004FF43373089340F64273ADF81C30ADF807
:1004F0002460ADF81E60204607A900F02DFC4FF0E7
:100500006003ADF808304FF00105ADF80A5040F235
:100510000003C2F200031B680493ADF81460204688
:1005200002A900F08FFC20464FF0080100F0D0FC3B
:100530002046294600F066FC2046294600F072FC61
:100540002046294600F0CEFC0AB070BD30B583B01D
:1005500000F054FA4FF02402214B1A60FFF78CFF91
:10056000FFF7FEFE4FF004004FF0010100F01CF910
:100570004FF4007300934FF003038DF805304FF0F4
:1005800002038DF804304FF000038DF806304FF071
:1005900001038DF807304FF40060C4F20200694691
:1005A00000F0B2F94FF040404FF0605100F084F895
:1005B00042F20F70FFF758FF4FF48844C4F2000472
:1005C000074D05E02046FFF789FE2860FFF754FF3E
:1005D000204640F22551FFF787FE0028F8D0F1E7CA
:1005E0000000002070B540F21403C2F200031A6844
:1005F00002F101021A604FF0010000F075F978B3C2
:1006000072B64FF0020440F22405C2F2000546F231
:10061000023635F8140080B2FFF71CFF04F1010424
:10062000B442F6D162B64FF0000000F017F94FF077
:10063000000000F027F946F2B840C4F202004FF083
:10064000000100F077FA40F21403C2F200035A6886
:1006500002F101025A604FF0010000F04FF970BD45
:100660004FF0080000F022F9012812D140F21404E2
:10067000C2F20004A36803F10103A3604FF0080075
:1006800000F02CF94FF0000323606360A360E36087
:1006900070BD4FF0100000F009F901280BD140F2B5
:1006A0001403C2F20003DA6802F10102DA604FF0CB
:1006B000100000F013F970BD4FF46053C4F2020350
:1006C0009A6822F07842104308439860704700BF50
:1006D00010B44FF46053C4F202039B6803F00C03A0
:1006E000042B09D0082B0DD0002B38D14FF4105318
:1006F000C0F2F403036037E04FF49053C0F27A0382
:10070000036031E04FF46053C4F202035C685A683E
:1007100002F03F0214F4800F4FF46053C4F202035E
:100720005B68C3F3881319BF4FF49054C0F27A0486
:100730004FF41054C0F2F404B4FBF2F101FB03F1E6
:100740004FF46053C4F202035A68C2F3014202F14B
:1007500001024FEA4202B1FBF2F3036004E04FF4FE
:100760001053C0F2F40303604FF46052C4F202026B
:100770009168C1F3031140F20403C2F20003595C13
:10078000046824FA01F141609468C4F382241C5D7A
:1007900021FA04F484609268C2F342329B5C21FA2D
:1007A00003F1C16010BC704739B14FF46053C4F21B
:1007B00002031A6B1043186370474FF46053C4F27E
:1007C00002031A6B22EA00001863704739B14FF434
:1007D0006053C4F202031A6C1043186470474FF45C
:1007E0006053C4F202031A6C22EA000018647047D6
:1007F00039B14FF46053C4F202035A6C1043586489
:1008000070474FF46053C4F202035A6C22EA0000AE
:100810005864704739B14FF46053C4F202031A6A46
:100820001043186270474FF46053C4F202031A6A0F
:1008300022EA00001862704739B14FF46053C4F2E5
:1008400002035A6A1043586270474FF46053C4F26F
:1008500002035A6A22EA00005862704740B14FF022
:100860000003C5F205031A6842F480421A6070471B
:100870004FF00003C5F205031A6822F480421A60A3
:10088000704700BF40B14FF00003C5F205031A687E
:1008900042F001021A6070474FF00003C5F20503F1
:1008A0001A6822F001021A60704700BF4FEA103345
:1008B000012B05D14FF00003C5F205039B6807E04B
:1008C000022B4FF00003C5F205030CBF5B681B69E8
:1008D00003420CBF00200120704700BF4FF000030F
:1008E000C5F20503586170474FF00003C5F20503D8
:1008F0001B6918420CBF0020012070474FF0000315
:10090000C5F20503586170472DE9F0074FF000026A
:1009100013464FF001074FF0030C1E4607FA03F48D
:100920000D682540A54243D1D0F8009090460CFABE
:1009300002F46FEA040404EA0909C0F80090D0F850
:1009400000A091F8049009FA02F949EA0A09C0F8EE
:10095000009091F8049009F1FF395FFA89F9B9F133
:10096000010F1CD8D0F8089004EA0909C0F80890D3
:10097000D0F808A091F8059009FA02F949EA0A09A5
:10098000C0F80890D0F8049029EA0505456045684C
:1009900091F8069009FA03F6B6B22E434660C56890
:1009A0002C40C460C568CC7904FA08F42C43C460B8
:1009B00003F1010302F10202102BAED1BDE8F007F2
:1009C000704700BF30B401F007034FEA83034FEADA
:1009D000D10101F1080150F821504FF00F0404FA41
:1009E00003F425EA040440F8214050F8214002FABB
:1009F00003F3234340F8213030BC704782B04FF4FA
:100A00006D43CEF20003D3F8882042F47002C3F89D
:100A100088204FF46053C4F202031A6842F00102C6
:100A20001A604FF000029A60196821F0847121F475
:100A30008031196043F21001C2F200415960196817
:100A400021F480211960DA60009201921A6842F460
:100A500080321A604FF46052C4F20202136803F449
:100A600000330193009B03F101030093019B1BB929
:100A7000009BB3F5A06FF1D14FF46053C4F20203B1
:100A80001B6813F4003F14BF012300230193019B53
:100A9000012B46D14FF46053C4F202031A6C42F0AA
:100AA00080521A644FF4E042C4F20002116841F42B
:100AB000804111609A689A609A6842F400429A6094
:100AC0009A6842F4A0529A6045F20842C0F240721D
:100AD0005A601A6842F080721A604FF46052C4F291
:100AE0000202136813F0007FFBD04FF47053C4F27E
:100AF000020340F205621A604FF46053C4F202032D
:100B00009A6822F003029A609A6842F002029A60A0
:100B10004FF46052C4F20202936803F00C03082BF6
:100B2000FAD14FF46D43CEF200034FF000629A60A9
:100B300002B0704721B1036843F0010303607047BE
:100B4000036823F001030360704700BF08B54FF04E
:100B50000003C4F2010398420BD14FF0010001469B
:100B6000FFF76AFE4FF001004FF00001FFF764FE4F
:100B700008BDB0F1804F0BD14FF001000146FFF7E7
:100B800049FE4FF001004FF00001FFF743FE08BDA2
:100B90004FF48063C4F2000398420CD14FF002007E
:100BA0004FF00101FFF736FE4FF002004FF0000159
:100BB000FFF730FE08BD4FF40063C4F20003984213
:100BC0000CD14FF004004FF00101FFF723FE4FF06E
:100BD00004004FF00001FFF71DFE08BD4FF4406315
:100BE000C4F2000398420CD14FF008004FF001010D
:100BF000FFF710FE4FF008004FF00001FFF70AFE6C
:100C000008BD4FF48053C4F2000398420CD14FF05A
:100C100010004FF00101FFF7FDFD4FF010004FF005
:100C20000001FFF7F7FD08BD4FF4A053C4F2000325
:100C300098420CD14FF020004FF00101FFF7EAFD80
:100C40004FF020004FF00001FFF7E4FD08BD4FF426
:100C50008063C4F2010398420CD14FF002004FF0C0
:100C60000101FFF7E9FD4FF002004FF00001FFF72F
:100C7000E3FD08BD4FF48043C4F2010398420CD158
:100C80004FF480304FF00101FFF7D6FD4FF4803074
:100C90004FF00001FFF7D0FD08BD4FF48843C4F2C8
:100CA000010398420CD14FF400304FF00101FFF7DF
:100CB000C3FD4FF400304FF00001FFF7BDFD08BD4C
:100CC0004FF49043C4F2010398420CD14FF48020BA
:100CD0004FF00101FFF7B0FD4FF480204FF000010D
:100CE000FFF7AAFD08BD4FF4C053C4F200039842B9
:100CF0000CD14FF040004FF00101FFF78BFD4FF09A
:100D000040004FF00001FFF785FD08BD4FF4E053B0
:100D1000C4F2000398420CD14FF080004FF0010163
:100D2000FFF778FD4FF080004FF00001FFF772FDF4
:100D300008BD4FF40053C4F2000398420BD14FF4A6
:100D400080704FF00101FFF765FD4FF480704FF0A8
:100D50000001FFF75FFD08BD03889BB24FF0000262
:100D6000C4F2010290421AD04FF48062C4F2010230
:100D7000904214D0B0F1804F11D04FF48062C4F291
:100D8000000290420BD04FF40062C4F20002904285
:100D900005D04FF44062C4F20002904204D14FF6F5
:100DA0008F721A404B8813434FF48052C4F20002F2
:100DB000904221D04FF4A052C4F2000290421BD0C6
:100DC0004FF6FF421A400B891A4302804B68C362F8
:100DD0000B8803854FF00003C4F20103984205D04D
:100DE0004FF48063C4F20103984201D18B7A0386E9
:100DF0004FF001038382704703804B68C3620B8806
:100E00000385EDE729B103889BB243F0800303809B
:100E10007047038823F080034FEA03434FEA1343EC
:100E20000380704729B103889BB243F0010303801C
:100E30007047038823F001034FEA03434FEA13434B
:100E40000380704770B4038C23F001034FEA03431F
:100E50004FEA13430384038C8588ADB2028B22F0E2
:100E600073024FEA02424FEA12420C88224323F0F7
:100E700002034FEA03434FEA13434E888C893443FD
:100E8000A4B223434FF00004C4F20104A04205D0F1
:100E90004FF48064C4F20104A04211D14FF6F774FC
:100EA0001C40CB891C434FF6FB7323408C882343A3
:100EB0004FF6FF442C404E8A0D8A3543ADB2254390
:100EC000858002838A684263038470BC704700BFD8
:100ED000038B23F008034FEA03434FEA13430B430A
:100EE0000383704749B1B0F844306FEA43436FEA77
:100EF00053439BB2A0F844307047B0F844304FEAF7
:0C0F000043434FEA5343A0F844307047CD
:100F0C000A000000000000000102030401020304B7
:040F1C0006070809B3
:0400000508000000EF
:00000001FF
