:020000040800F2
:100000004CD2002049040008B1040008B1040008E3
:10001000B1040008B1040008B104000800000000A9
:10002000000000000000000000000000B104000813
:10003000B104000800000000B1040008B104000889
:10004000B1040008B1040008B1040008B1040008BC
:10005000B1040008B1040008B1040008B1040008AC
:10006000B1040008B1040008B1040008B10400089C
:10007000B1040008B1040008B1040008B10400088C
:10008000B1040008B1040008B1040008B10400087C
:10009000B1040008B1040008B1040008B10400086C
:1000A000B1040008B1040008B1040008B10400085C
:1000B000B1040008B1040008B1040008B10400084C
:1000C000B1040008B1040008B1040008B10400083C
:1000D000B1040008B1040008B1040008B10400082C
:1000E000B1040008B1040008B1040008B10400081C
:1000F000B1040008B1040008B1040008B10400080C
:10010000B1040008B1040008B1040008B1040008FB
:10011000B1040008B1040008B1040008B1040008EB
:10012000B1040008B1040008B1040008B1040008DB
:10013000B1040008B1040008B1040008B1040008CB
:10014000B1040008B1040008B1040008B1040008BB
:10015000B1040008B1040008B1040008B1040008AB
:10016000B1040008B1040008B1040008B10400089B
:10017000B1040008B104000865150008B1040008C6
:10018000B1040008B104000880B58AB000AF7860FF
:1001900039604FF000037B624FF000033B624FF089
:1001A0000003FB614FF00003BB617B681B8A9BB2BD
:1001B0007B627B6A23F440537B623B68DB887A6A0C
:1001C00013437B627B6A9AB27B681A827B689B8945
:1001D0009BB27B627B6A23F4B05323F00C037B62F7
:1001E0003B689A883B681B8913439AB23B685B89DA
:1001F00013439BB27A6A13437B627B6A9AB27B6831
:100200009A817B689B8A9BB27B627B6A23F44073F2
:100210007B623B689B897A6A13437B627B6A9AB2F2
:100220007B689A8207F10803184601F061FA7A6840
:100230004FF48053C4F201039A4206D07A684FF417
:10024000A053C4F201039A4202D17B693B6201E0F0
:100250003B693B627B689B899BB29BB21BB2002BC4
:100260000FDA3A6A13464FEA83039B184FEA830278
:100270009A183B681B684FEA4303B2FBF3F3FB6138
:100280000EE03A6A13464FEA83039B184FEA830253
:100290009A183B681B684FEA8303B2FBF3F3FB61D8
:1002A000FA6948F21F53C5F2EB13A3FB02134FEA9E
:1002B00053134FEA03137B627B6A4FEA13134FF029
:1002C000640202FB03F3FA69D31ABB617B689B8962
:1002D0009BB29BB21BB2002B12DABB694FEAC3037D
:1002E00003F1320248F21F53C5F2EB13A3FB0213D2
:1002F0004FEA531303F007037A6A13437B6211E05A
:10030000BB694FEA031303F1320248F21F53C5F2EF
:10031000EB13A3FB02134FEA531303F00F037A6AA4
:1003200013437B627B6A9AB27B681A8107F12807C4
:10033000BD4680BD80B483B000AF78600B46FB70D3
:10034000FB78002B08D07B689B899BB243F4005359
:100350009AB27B689A8107E07B689B899BB223F401
:1003600000539AB27B689A8107F10C07BD4680BCA6
:10037000704700BF80B483B000AF78600B46FB705D
:10038000FB78002B0AD07B689B899BB26FEA4343C2
:100390006FEA53439AB27B689A8109E07B689B8934
:1003A0009BB24FEA43434FEA53439AB27B689A8128
:1003B00007F10C07BD4680BC704700BF80B483B016
:1003C00000AF78600B467B807B884FEAC3534FEACF
:1003D000D3539AB27B689A8007F10C07BD4680BC64
:1003E000704700BF80B483B000AF78607B689B88A3
:1003F0009BB24FEAC3534FEAD3539BB2184607F15F
:100400000C07BD4680BC704780B485B000AF7860F3
:100410000B467B804FF00003FB737B681B889AB20E
:100420007B8813409BB2002B03D04FF00103FB737A
:1004300002E04FF00003FB73FB7B184607F1140743
:10044000BD4680BC704700BF80B582B000AF42F6A9
:100450005423C0F600037B6040F20003C2F20003A5
:100460003B600BE07B681A683B681A603B6803F1ED
:1004700004033B607B6803F104037B603A6840F24D
:100480004043C2F200039A42ECD3074807494FF0B9
:1004900000028842B8BF40F8042BFADB00F0BAFB38
:1004A00007F10807BD4680BD4004002050CA002067
:1004B00080B400AFFEE700BF80B586B000AF4FF05C
:1004C00008004FF0010101F0FBF94FF400304FF04C
:1004D000010101F04DFA4FF44060C4F202004FF008
:1004E00005014FF0070201F019FD4FF44060C4F21E
:1004F00002004FF006014FF0070201F00FFD4FF42C
:100500008840C4F200004FF00101FFF733FF4FF0C5
:100510000003BB754FF00103FB754FF002033B7501
:100520004FF020033B614FF002037B7507F110038E
:100530004FF44060C4F20200194601F045FC4FF050
:1005400002033B754FF040033B6107F110034FF48A
:100550004060C4F20200194601F036FC4FF49F439C
:10056000C0F212033B604FF00003BB804FF000036A
:10057000FB804FF000033B814FF00003BB814FF045
:100580000C037B813B464FF48840C4F200001946BF
:10059000FFF7FAFD4FF48840C4F200004FF001016C
:1005A000FFF7C8FE07F11807BD4680BD80B584B0CF
:1005B00000AF0346FB71FB79FB73FB7B9BB24FF4EF
:1005C0008840C4F200001946FFF7F8FE00BF4FF460
:1005D0008840C4F200004FF04001FFF715FF0346CA
:1005E000002BF4D007F11007BD4680BD80B584B064
:1005F00000AF0346FB80FB88FB73FB884FEA1323A5
:100600009BB2BB73FB7B1846FFF7D0FFBB7B184642
:10061000FFF7CCFF07F11007BD4680BD80B586B05F
:1006200000AF4FF002004FF0010101F049F94FF423
:1006300080004FF0010101F09BF94FF48060C4F29B
:1006400002004FF00A014FF0040201F067FC4FF482
:100650008060C4F202004FF00B014FF0040201F081
:100660005DFC4FF00103BB754FF00003FB754FF0CD
:1006700002033B754FF440633B614FF002037B750F
:1006800007F110034FF48060C4F20200194601F034
:100690009BFB4FF4D453C0F206033B604FF00003C2
:1006A000BB804BF6FF73FB804FF000033B814FF4A0
:1006B00080637B814FF48043BB814FF4B040C4F230
:1006C00000004FF0010102F015F83B464FF4B04036
:1006D000C4F20000194601F037FF07F11807BD46C4
:1006E00080BD00BF80B582B000AF786013460A4677
:1006F000FA70BB7000BF78684FF4003102F0EEF87A
:100700000346002BF7D178684FF0010102F012F890
:1007100000BF78684FF00101C0F2030102F0A6F8B3
:100720000346002BF5D0FA78BB78786811461A4654
:1007300002F040F8BB78002B0BD100BF78684FF077
:100740008201C0F2070102F091F80346002BF5D0B8
:100750000DE0BB78012B0AD100BF78684FF0020191
:10076000C0F2030102F082F80346002BF5D007F136
:100770000807BD4680BD00BF80B582B000AF78607D
:100780000B46FB70FB787868194602F051F800BF01
:1007900078684FF08401C0F2070102F067F8034661
:1007A000002BF5D007F10807BD4680BD80B584B0A9
:1007B00000AF786078684FF0000102F019F800BFD0
:1007C00078684FF04001C0F2030102F04FF8034691
:1007D000002BF5D0786802F03BF80346FB73FB7BF7
:1007E000184607F11007BD4680BD00BF80B582B036
:1007F00000AF786078684FF0010101F0BBFF07F1AE
:100800000807BD4680BD00BF80B584B000AF4FF083
:100810000003FB734FF001004FF0010101F050F8AD
:100820004FF480737B604FF003037B724FF0020341
:100830003B724FF00003BB724FF00103FB7207F1F4
:1008400004034FF00000C4F20200194601F0BCFAA4
:100850004FF4C0004FF0C06100F026FFFB7B18464C
:1008600007F11007BD4680BD80B483B000AF78604B
:1008700004E07B6803F1FF337B6000BF7B68012BE2
:10088000F7D807F10C07BD4680BC704780B584B02F
:1008900000AF0346FB714FF00003FB734FF4B04011
:1008A000C4F200004FF042014FF00002FFF71AFFC0
:1008B000FB794FF4B040C4F200001946FFF75CFF2B
:1008C0004FF4B040C4F20000FFF790FF4FF47A708D
:1008D000FFF7CAFF4FF4B040C4F200004FF04301ED
:1008E0004FF00102FFF7FEFE4FF4B040C4F20000EB
:1008F000FFF75CFF0346FB734FF4B040C4F2000007
:10090000FFF774FF4FF47A70FFF7AEFFFB7B1846DA
:1009100007F11007BD4680BD80B582B000AF02462A
:100920000B46FA71BB714FF4B040C4F200004FF0B7
:1009300042014FF00002FFF7D5FEFB794FF4B040C3
:10094000C4F200001946FFF717FFBB794FF4B0401F
:10095000C4F200001946FFF70FFF4FF4B040C4F295
:100960000000FFF743FF4FF47A70FFF77DFF4FF071
:100970000003184607F10807BD4680BD80B596B054
:1009800000AF42F210733B604FF017004FF00101CF
:1009900000F096FF4FF00000C4F202004FF0040197
:1009A0004FF00D0201F0BAFA4FF00000C4F202005D
:1009B0004FF006014FF00D0201F0B0FA4FF48060E5
:1009C000C4F202004FF006014FF00D0201F0A6FA4A
:1009D0004FF48060C4F202004FF007014FF00D02A7
:1009E00001F09CFA4FF48060C4F202004FF008015D
:1009F0004FF00D0201F092FA4FF48060C4F2020051
:100A00004FF009014FF00D0201F088FA4FF4006039
:100A1000C4F202004FF00B014FF00D0201F07EFA1C
:100A20004FF40060C4F202004FF006014FF00D02D7
:100A300001F074FA4FF40060C4F202004FF00701B5
:100A40004FF00D0201F06AFA4FF48050C4F2020038
:100A50004FF000014FF00D0201F060FA4FF48050AA
:100A6000C4F202004FF001014FF00D0201F056FAFE
:100A70004FF48A633B654FF0020387F854304FF020
:100A8000030387F855304FF0000387F856304FF0D6
:100A9000000387F8573007F150034FF00000C4F20D
:100AA0000200194601F090F94FF470733B6507F1AD
:100AB00050034FF48060C4F20200194601F084F93B
:100AC0004FF40C633B6507F150034FF40060C4F230
:100AD0000200194601F078F94FF003033B6507F176
:100AE00050034FF48050C4F20200194601F06CF933
:100AF0004FF001004FF0010100F00EFF00F0E6FFA3
:100B00004FF00003BB804FF00003FB814FF0000368
:100B10003B824FF00003BB814FF020033B814FF03D
:100B20000003FB804FF080037B8107F1040318462C
:100B300001F002F84FF480004FF0010100F0C0FE18
:100B400046F2B840C4F2020001F04CFB00BF46F28E
:100B5000B840C4F2020001F0DBFC0346002BF6D1E2
:100B60004FF000737B614FF02803C5F20503BB61B2
:100B700040F25043C2F20003FB614FF000033B62BE
:100B80004FF446537B624FF00003BB624FF4806327
:100B9000FB624FF480533B634FF400537B634FF48D
:100BA0008073BB634FF40033FB634FF004033B647B
:100BB0004FF003037B644FF00003BB644FF000036E
:100BC000FB6407F1140346F2B840C4F20200194670
:100BD00001F02AFC42F210733B6000BF46F2B840BD
:100BE000C4F2020001F094FC0346012B0AD03B68DA
:100BF000002B0CBF00220122D2B203F1FF333B6075
:100C0000002AEBD13B68002B00D1FEE707F1580723
:100C1000BD4680BD80B594B000AF01F0D5F9FFF7B7
:100C20004BFCFFF7FBFCFFF7EFFDFFF7A7FE4FF0D4
:100C30000A00FFF72BFE0346762B06D042F638203B
:100C4000C0F6000000F0E0FEFEE74FF012004FF0AB
:100C50008001FFF761FE4FF011004FF00101FFF737
:100C60005BFE4FF012004FF00001FFF755FE4FF40E
:100C7000E4737B644FF018033B644FF00E03FB6397
:100C80004FF4F773BB637B6C4FEAE303DBB24FF0C7
:100C900017001946FFF740FE3B6C4FEAE303DBB257
:100CA0004FF018001946FFF737FE4FF03200FFF7FC
:100CB000EDFD034687F8373097F8373023F03F03D0
:100CC000DAB23B6C03F007034FEAC303DBB2134312
:100CD000DAB27B6CDBB203F00703DBB21343DBB2A7
:100CE00087F8373097F837304FF032001946FFF762
:100CF00013FEFB6B4FEAA303DBB24FF0190019465A
:100D0000FFF70AFEBB6B4FEAA303DBB24FF01A00FA
:100D10001946FFF701FE4FF00300FFF7B7FD03464A
:100D200087F8373097F8373023F00F03DAB2BB6B10
:100D300003F003034FEA8303DBB21343DAB2FB6B26
:100D4000DBB203F00303DBB21343DBB287F83730C7
:100D500097F837304FF003001946FFF7DDFD4FF0ED
:100D60000C004FF00C01FFF7D7FD4FF03E004FF0A5
:100D70001101FFF7D1FD4FF073004FF0F101FFF7C4
:100D8000CBFD4FF0A2004FF05201FFF7C5FD4FF031
:100D90007B004FF01C01FFF7BFFD4FF07C004FF0D0
:100DA0002801FFF7B9FD4FF07D004FF03C01FFF740
:100DB000B3FD4FF07F004FF06901FFF7ADFD4FF03D
:100DC00014004FF03801FFF7A7FD4FF0A1004FF0DE
:100DD0000B01FFF7A1FD4FF074004FF01901FFF771
:100DE0009BFD4FF09A004FF08001FFF795FD4FF00B
:100DF00043004FF01401FFF78FFD4FF03D004FF01F
:100E0000C001FFF789FD4FF070004FF03A01FFF786
:100E100083FD4FF071004FF03501FFF77DFD4FF07E
:100E200072004FF01101FFF777FD4FF07A004FF09D
:100E30002001FFF771FD4FF07B004FF01001FFF72D
:100E40006BFD4FF07C004FF01E01FFF765FD4FF08A
:100E50007D004FF03501FFF75FFD4FF07E004FF052
:100E60005A01FFF759FD4FF07F004FF06901FFF77E
:100E700053FD4FF080004FF07601FFF74DFD4FF02E
:100E800081004FF08001FFF747FD4FF082004FF0E7
:100E90008801FFF741FD4FF083004FF08F01FFF70E
:100EA0003BFD4FF084004FF09601FFF735FD4FF00A
:100EB00085004FF0A301FFF72FFD4FF086004FF0A4
:100EC000AF01FFF729FD4FF087004FF0C401FFF796
:100ED00023FD4FF088004FF0D701FFF71DFD4FF0C5
:100EE00089004FF0E801FFF717FD4FF013004FF0B6
:100EF000E001FFF711FD4FF000004FF00001FFF798
:100F00000BFD4FF010004FF00001FFF705FD4FF013
:100F10000D004FF04001FFF7FFFC4FF014004FF0C1
:100F20001801FFF7F9FC4FF0A5004FF00501FFF79E
:100F3000F3FC4FF0AB004FF00701FFF7EDFC4FF073
:100F400024004FF09501FFF7E7FC4FF025004FF02C
:100F50003301FFF7E1FC4FF026004FF0E301FFF70C
:100F6000DBFC4FF09F004FF07801FFF7D5FC4FF00E
:100F7000A0004FF06801FFF7CFFC4FF0A1004FF049
:100F80000301FFF7C9FC4FF0A6004FF0D801FFF7AF
:100F9000C3FC4FF0A7004FF0D801FFF7BDFC4FF0A6
:100FA000A8004FF0F001FFF7B7FC4FF0A9004FF099
:100FB0009001FFF7B1FC4FF0AA004FF09401FFF74A
:100FC000ABFC4FF013004FF0E501FFF7A5FC4FF02D
:100FD0000E004FF06101FFF79FFC4FF00F004FF044
:100FE0004B01FFF799FC4FF016004FF00201FFF79D
:100FF00093FC4FF01E004FF00701FFF78DFC4FF000
:1010000021004FF00201FFF787FC4FF022004FF064
:101010009101FFF781FC4FF029004FF00701FFF726
:101020007BFC4FF033004FF00B01FFF775FC4FF0E6
:1010300035004FF00B01FFF76FFC4FF037004FF01A
:101040001D01FFF769FC4FF038004FF07101FFF709
:1010500063FC4FF039004FF02A01FFF75DFC4FF0C1
:101060003C004FF07801FFF757FC4FF04D004FF078
:101070004001FFF751FC4FF04E004FF02001FFF709
:101080004BFC4FF069004FF00001FFF745FC4FF0BB
:101090006B004FF04A01FFF73FFC4FF074004FF038
:1010A0001001FFF739FC4FF08D004FF04F01FFF7B3
:1010B00033FC4FF08E004FF00001FFF72DFC4FF096
:1010C0008F004FF00001FFF727FC4FF090004FF02A
:1010D0000001FFF721FC4FF091004FF00001FFF7F6
:1010E0001BFC4FF096004FF00001FFF715FC4FF08E
:1010F0009A004FF00001FFF70FFC4FF0B0004FF0E7
:101100008401FFF709FC4FF0B1004FF00C01FFF72D
:1011100003FC4FF0B2004FF00E01FFF7FDFB4FF064
:10112000B3004FF08201FFF7F7FB4FF0B8004FF02C
:101130000A01FFF7F1FB4FF043004FF00A01FFF700
:10114000EBFB4FF044004FF0F001FFF7E5FB4FF0F1
:1011500045004FF03401FFF7DFFB4FF046004FF042
:101160005801FFF7D9FB4FF047004FF02801FFF778
:10117000D3FB4FF048004FF03A01FFF7CDFB4FF0A3
:1011800059004FF08801FFF7C7FB4FF05A004FF0AE
:101190008801FFF7C1FB4FF05B004FF04401FFF700
:1011A000BBFB4FF05C004FF06701FFF7B5FB4FF062
:1011B0005D004FF04901FFF7AFFB4FF05E004FF0CD
:1011C0000E01FFF7A9FB4FF06C004FF00A01FFF78B
:1011D000A3FB4FF06D004FF05501FFF79DFB4FF063
:1011E0006E004FF01101FFF797FB4FF06F004FF0CB
:1011F0009F01FFF791FB4FF06A004FF04001FFF7AE
:101200008BFB4FF001004FF04001FFF785FB4FF0E3
:1012100002004FF06001FFF77FFB4FF013004FF02B
:10122000E701FFF779FB4FF04F004FF08001FFF728
:1012300073FB4FF050004FF08001FFF76DFB4FF054
:1012400051004FF00001FFF767FB4FF052004FF0E5
:101250002201FFF761FB4FF053004FF05E01FFF7F3
:101260005BFB4FF054004FF08001FFF755FB4FF050
:1012700058004FF09E01FFF74FFB4FF079004FF001
:101280000101FFF749FB4FF0C8004FF0F001FFF7F5
:1012900043FB4FF079004FF00F01FFF73DFB4FF09C
:1012A000C8004FF00001FFF737FB4FF079004FF017
:1012B0001001FFF731FB4FF0C8004FF07E01FFF740
:1012C0002BFB4FF079004FF00A01FFF725FB4FF0A1
:1012D000C8004FF08001FFF71FFB4FF079004FF07F
:1012E0000B01FFF719FB4FF0C8004FF00101FFF7AA
:1012F00013FB4FF079004FF00C01FFF70DFB4FF09F
:10130000C8004FF00F01FFF707FB4FF079004FF0D7
:101310000D01FFF701FB4FF0C8004FF02001FFF770
:10132000FBFA4FF079004FF00901FFF7F5FA4FF0A3
:10133000C8004FF08001FFF7EFFA4FF079004FF04F
:101340000201FFF7E9FA4FF0C8004FF0C001FFF7C4
:10135000E3FA4FF079004FF00301FFF7DDFA4FF0A9
:10136000C8004FF04001FFF7D7FA4FF079004FF077
:101370000501FFF7D1FA4FF0C8004FF03001FFF739
:10138000CBFA4FF079004FF02601FFF7C5FA4FF086
:10139000FF004FF0FF01FFF7BFFA4FF04E0387F851
:1013A00024304FF0000387F825304FF0000387F812
:1013B00026304FF0010387F8273007F12403184641
:1013C00001F0C8FA4FF001004FF0010100F04AFCB3
:1013D0004FF008004FF0010100F044FC4FF0100006
:1013E0004FF0010100F03EFC4FF0010000F0EEFB79
:1013F0004FF0010000F010FC46F2B840C4F20200C9
:101400004FF0010101F068F84FF000037B604FF0EE
:101410000003BB604FF00003FB604FF000033B6133
:101420004FF000037B614FF00003BB614FF00003FE
:10143000FB614FF000033B624FF00003FB6483E06D
:1014400082E0FB6C03F10103FB64FB6C082B02D10F
:101450004FF00003FB644FF48840C4F20000FEF735
:10146000C1FF03461A46FB6C4FEA830307F15001A4
:10147000CB1843F84C2CFB6C4FEA830307F1500266
:10148000D31853F84C3C0A2B00D100BFFB6C4FEA39
:10149000830307F15001CB1853F84C3C0A2B53D16E
:1014A000FB6C03F1FF334FEA830307F15002D318BB
:1014B00053F84C3C0D2B47D1BB683B63FB68FB6288
:1014C0003B69BB623B6B312B02D0322B14D01FE047
:1014D0004FF0010000F07AFB4FF0010000F09CFBA0
:1014E00046F2B840C4F202004FF0010100F0F4FFF0
:1014F0004FF00003FB640FE0FB6ADAB2BB6ADBB2B9
:1015000010461946FFF708FA4FF00003FB6403E0AA
:101510004FF00003FB6400BF4FF00003FB644FF08B
:101520000003BB640DE0BB6C4FEA830307F150017D
:10153000CB184FF0000243F84C2CBB6C03F10103B5
:10154000BB64BB6C072BEED94FF48840C4F200009B
:1015500040F22551FEF758FF0346002B7FF471AF90
:101560006EE700BF80B582B000AF40F24043C2F2E8
:1015700000031B6803F1010240F24043C2F2000382
:101580001A604FF0010000F0E9FB0346002B3CD04D
:1015900072B64FF00003FB8010E0FB8803F10202FB
:1015A00040F25043C2F2000333F812309BB21846A7
:1015B000FFF71CF8FB8803F10103FB80FA8846F271
:1015C000FF239A42E9D962B64FF0000000F0FEFA1C
:1015D0004FF0000000F020FB46F2B840C4F20200D9
:1015E0004FF0000100F078FF40F24443C2F20003E4
:1015F0001B6803F1010240F24443C2F200031A6087
:101600004FF0010000F0D0FB4AE04FF0080000F07E
:1016100057FB0346012B2CD140F24843C2F2000392
:101620001B6803F1010240F24843C2F200031A6052
:101630004FF0080000F082FB40F24043C2F200038A
:101640004FF000021A6040F24443C2F200034FF030
:1016500000021A6040F24843C2F200034FF0000259
:101660001A6040F24C43C2F200034FF000021A60CD
:1016700016E04FF0100000F023FB0346012B0FD1C2
:1016800040F24C43C2F200031B6803F1010240F236
:101690004C43C2F200031A604FF0100000F04EFB02
:1016A00007F10807BD4680BD80B485B000AF786003
:1016B00039604FF00003FB604FF46053C4F2020343
:1016C0009B68FB60FB6823F0EC63FB607A683B6817
:1016D0001343FA681343FB604FF46053C4F20203F0
:1016E000FA689A6007F11407BD4680BC704700BFD6
:1016F00080B489B000AF78604FF00003BB614FF059
:1017000000037B614FF00003FB614FF002033B617C
:101710004FF00003FB604FF00203BB604FF46053D7
:10172000C4F202039B6803F00C03BB61BB69042B8A
:101730000AD0082B0FD0002B62D17A684FF41053D7
:10174000C0F2F403136062E07A684FF49053C0F281
:101750007A0313605BE04FF46053C4F202035B68EA
:1017600003F480034FEA9353FB604FF46053C4F2D9
:1017700002035B6803F03F03BB60FB68002B15D0DE
:101780004FF49053C0F27A03BA68B3FBF2F24FF40D
:101790006053C4F202035B68194647F6C0730B40FE
:1017A0004FEA931303FB02F3FB6114E04FF4105371
:1017B000C0F2F403BA68B3FBF2F24FF46053C4F220
:1017C00002035B68194647F6C0730B404FEA931358
:1017D00003FB02F3FB614FF46053C4F202035B6846
:1017E00003F440334FEA134303F101034FEA430389
:1017F0003B61FA693B69B2FBF3F27B681A6006E071
:101800007A684FF41053C0F2F403136000BF4FF432
:101810006053C4F202039B6803F0F003BB61BB6931
:101820004FEA1313BB6140F20003C2F20003BA692E
:101830009B181B78DBB27B617B681A687B6922FA94
:1018400003F27B685A604FF46053C4F202039B6852
:1018500003F4E053BB61BB694FEA9323BB6140F2E1
:101860000003C2F20003BA699B181B78DBB27B61EC
:101870007B685A687B6922FA03F27B689A604FF4AE
:101880006053C4F202039B6803F46043BB61BB690D
:101890004FEA5333BB6140F20003C2F20003BA695E
:1018A0009B181B78DBB27B617B685A687B6922FAE4
:1018B00003F27B68DA6007F12407BD4680BC7047FD
:1018C00080B483B000AF78600B46FB70FB78002BD0
:1018D0000DD04FF46053C4F202034FF46052C4F2CF
:1018E0000202126B11467A680A431A630EE04FF443
:1018F0006053C4F202034FF46052C4F20202126B4E
:1019000011467A686FEA02020A401A6307F10C076F
:10191000BD4680BC704700BF80B483B000AF786024
:101920000B46FB70FB78002B0DD04FF46053C4F2D4
:1019300002034FF46052C4F20202526B11467A68FD
:101940000A435A630EE04FF46053C4F202034FF4AB
:101950006052C4F20202526B11467A686FEA0202C8
:101960000A405A6307F10C07BD4680BC704700BFB0
:1019700080B483B000AF78600B46FB70FB78002B1F
:101980000DD04FF46053C4F202034FF46052C4F21E
:101990000202126C11467A680A431A640EE04FF490
:1019A0006053C4F202034FF46052C4F20202126C9C
:1019B00011467A686FEA02020A401A6407F10C07BE
:1019C000BD4680BC704700BF80B584B000AF034601
:1019D000FB71FB79FB73FB7B9BB24FF48840C4F235
:1019E00000001946FEF7EAFC00BF4FF48840C4F23D
:1019F00000004FF04001FEF707FD0346002BF4D036
:101A000007F11007BD4680BD80B582B000AF786099
:101A100040F23843C2F200031B689B68786819469D
:101A200000F02CF80346184607F10807BD4680BDB4
:101A300080B582B000AF7860396040F23843C2F2BE
:101A400000031B689A683B689A4208D040F238430A
:101A5000C2F200031B68DA683B689A4206D17B68D1
:101A6000DBB21846FFF7B0FF7B6801E04FF0FF33B1
:101A7000184607F10807BD4680BD00BF80B584B099
:101A800000AF786039604FF00003FB6014E07B68C2
:101A90001B7818463968FFF7CBFF0346B3F1FF3FC9
:101AA00002D14FF0FF330CE0FB6803F10103FB6050
:101AB0007B6803F101037B607B681B78002BE6D118
:101AC000FB68184607F11007BD4680BD80B400AF23
:101AD0004FF00003C5F205034FF000021A604FF00B
:101AE0000003C5F205034FF00002DA604FF0000377
:101AF000C5F205034FF01F025A614FF00003C5F213
:101B000005034FF000029A614FF00003C5F2050390
:101B10004FF00002DA614FF00003C5F205034FF009
:101B200000021A624FF00003C5F205034FF00002F5
:101B30005A62BD4680BC704780B485B000AF786003
:101B40004FF00003FB604FF00003C5F205034FF0B8
:101B50000002C5F20502126822F4804222F001025E
:101B60001A604FF00003C5F205031B68FB60FB68B9
:101B700023F47E6323F01203FB607B681A887B6882
:101B80005B8813439AB27B689B8813439AB27B6845
:101B9000DB8813439AB27B681B8913439AB27B6834
:101BA0005B8913439AB27B689B8913439BB2FA68A3
:101BB0001343FB604FF00003C5F20503FA681A6097
:101BC00007F11407BD4680BC704700BF80B483B0E6
:101BD00000AF0346FB71FB79002B0CD04FF00003E4
:101BE000C5F205034FF00002C5F20502126842F487
:101BF00080421A600BE04FF00003C5F205034FF07E
:101C00000002C5F20502126822F480421A6007F150
:101C10000C07BD4680BC704780B483B000AF03465C
:101C2000FB71FB79002B0CD04FF00003C5F20503CC
:101C30004FF00002C5F20502126842F001021A607C
:101C40000BE04FF00003C5F205034FF00002C5F2B0
:101C50000502126822F001021A6007F10C07BD4666
:101C600080BC704780B483B000AF02460B46FA8058
:101C70007B717B79002B0DD04FF00003C5F205037B
:101C80004FF00002C5F20502D2681146FA880A43F5
:101C9000DA600FE04FF00003C5F205034FF00002D9
:101CA000C5F20502D2681146FA886FEA020292B2C2
:101CB0000A40DA6007F10C07BD4680BC704700BFE0
:101CC00080B487B000AF0346FB804FF00003FB7584
:101CD0004FF000033B61FB884FEA13339BB2FB607C
:101CE000FB68012B06D14FF00003C5F205039B688A
:101CF0003B610FE0FB68022B06D14FF00003C5F2F9
:101D000005035B683B6105E04FF00003C5F2050386
:101D10001B693B61FA883B691340002B03D04FF0ED
:101D20000103FB7502E04FF00003FB75FB7D1846D5
:101D300007F11C07BD4680BC704700BF80B483B06C
:101D400000AF0346FB804FF00003C5F20503FA889D
:101D50005A6107F10C07BD4680BC704780B485B05E
:101D600000AF0346FB804FF00003FB734FF000030E
:101D7000BB604FF00003C5F205031B691A46FB88E0
:101D80001340BB60BB68002B03D04FF00103FB7313
:101D900002E04FF00003FB73FB7B184607F11407CA
:101DA000BD4680BC704700BF80B483B000AF03461F
:101DB000FB804FF00003C5F20503FA885A6107F172
:101DC0000C07BD4680BC704780B487B000AF786018
:101DD00039604FF000037B614FF000033B614FF02F
:101DE0000003FB604FF000037B618EE07B694FF0E6
:101DF000010202FA03F33B613B681A683B69134036
:101E0000FB60FA683B699A427BD17B681B681A4683
:101E10007B694FEA43034FF0030101FA03F36FEAD2
:101E200003031A407B681A607B681B681A463B688C
:101E30001B7919467B694FEA430301FA03F31A43FE
:101E40007B681A603B681B79012B03D03B681B79C8
:101E5000022B38D17B689B681A467B694FEA4303A3
:101E60004FF0030101FA03F36FEA03031A407B68A2
:101E70009A607B689B681A463B685B7919467B6968
:101E80004FEA430301FA03F31A437B689A607B68C5
:101E90005B681A467B699BB24FF0010101FA03F3BC
:101EA0006FEA03031A407B685A607B685B681A46D6
:101EB0003B689B7919467B699BB201FA03F39BB29D
:101EC0001A437B685A607B68DB681A467B699BB261
:101ED0004FEA43034FF0030101FA03F36FEA0303F0
:101EE0001A407B68DA607B68DB681A463B68DB79FE
:101EF00019467B694FEA430301FA03F31A437B68EF
:101F0000DA607B6903F101037B617B690F2B7FF64C
:101F10006DAF07F11C07BD4680BC704780B485B02B
:101F200000AF786013460A467A807B704FF000035A
:101F3000FB604FF00003BB607A787B8803F00703F7
:101F40004FEA830302FA03F3FB607B884FEAD30373
:101F50009BB21A467B884FEAD3039BB219467B6833
:101F600001F1080153F8213019467B8803F007037B
:101F70004FEA83034FF00F0000FA03F36FEA030305
:101F800019407B6802F1080243F822107B884FEA6F
:101F9000D3039BB21A467B6802F1080253F8223041
:101FA0001A46FB681343BB607B884FEAD3039BB29E
:101FB0001A467B6802F10802B96843F8221007F15B
:101FC0001407BD4680BC704780B500AF4FF4605326
:101FD000C4F202034FF46052C4F20202126842F0EB
:101FE00001021A604FF46053C4F202034FF0000282
:101FF0009A604FF46053C4F202034FF46052C4F28B
:102000000202126822F0847222F480321A604FF4C5
:102010006053C4F2020343F21002C2F200425A605B
:102020004FF46053C4F202034FF46052C4F2020250
:10203000126822F480221A604FF46053C4F2020343
:102040004FF00002DA6000F009F84FF46D43CEF271
:1020500000034FF000629A6080BD00BF80B483B07F
:1020600000AF4FF000037B604FF000033B604FF484
:102070006053C4F202034FF46052C4F202021268C9
:1020800042F480321A604FF46053C4F202031B68BA
:1020900003F400333B607B6803F101037B603B6822
:1020A000002B03D17B68B3F5A06FECD14FF46053E4
:1020B000C4F202031B6803F40033002B03D04FF07B
:1020C00001033B6002E04FF000033B603B68012BE3
:1020D00040F082804FF46053C4F202034FF4605228
:1020E000C4F20202126C42F080521A644FF4E043D0
:1020F000C4F200034FF4E042C4F20002126842F45A
:1021000080421A604FF46053C4F202034FF46052ED
:10211000C4F2020292689A604FF46053C4F2020360
:102120004FF46052C4F20202926842F400429A6094
:102130004FF46053C4F202034FF46052C4F202023F
:10214000926842F4A0529A604FF46053C4F20203C2
:1021500045F21942C0F240725A604FF46053C4F223
:1021600002034FF46052C4F20202126842F080721D
:102170001A6000BF4FF46053C4F202031B6803F0FF
:102180000073002BF6D04FF47053C4F2020340F2F8
:1021900005621A604FF46053C4F202034FF46052B8
:1021A000C4F20202926822F003029A604FF4605374
:1021B000C4F202034FF46052C4F20202926842F089
:1021C00002029A6000BF4FF46053C4F202039B689E
:1021D00003F00C03082BF6D107F10C07BD4680BCB9
:1021E000704700BF80B483B000AF78607B681B6825
:1021F00023F001027B681A607B684FF000021A60CE
:102200007B684FF000025A607B684FF000029A60D2
:102210007B684FF00002DA607B684FF000021A61C1
:102220007B684FF021025A617A6846F21003C4F2CB
:1022300002039A4207D14FF4C043C4F202034FF0A5
:102240003D029A60EBE07A6846F22803C4F202038A
:102250009A4207D14FF4C043C4F202034FF47462B0
:102260009A60DCE07A6846F24003C4F202039A42C4
:1022700007D14FF4C043C4F202034FF474129A60C2
:10228000CDE07A6846F25803C4F202039A4207D1BD
:102290004FF4C043C4F202034FF074629A60BEE090
:1022A0007A6846F27003C4F202039A4209D14FF4ED
:1022B000C043C4F202034FF03D02C2F20002DA60F2
:1022C000ADE07A6846F28803C4F202039A4209D16B
:1022D0004FF4C043C4F202034FF47462C2F200022E
:1022E000DA609CE07A6846F2A003C4F202039A42E4
:1022F00009D14FF4C043C4F202034FF00002C2F20E
:102300003D02DA608BE07A6846F2B803C4F2020359
:102310009A4207D14FF4C043C4F202034FF03D523A
:10232000DA607CE07A6846F21043C4F202039A4213
:1023300007D14FF4C843C4F202034FF03D029A6044
:102340006DE07A6846F22843C4F202039A4207D14C
:102350004FF4C843C4F202034FF474629A605EE023
:102360007A6846F24043C4F202039A4207D14FF41E
:10237000C843C4F202034FF474129A604FE07A68C3
:1023800046F25843C4F202039A4207D14FF4C843BD
:10239000C4F202034FF074629A6040E07A6846F239
:1023A0007043C4F202039A4209D14FF4C843C4F205
:1023B00002034FF03D02C2F20002DA602FE07A68B9
:1023C00046F28843C4F202039A4209D14FF4C8434B
:1023D000C4F202034FF47462C2F20002DA601EE03B
:1023E0007A6846F2A043C4F202039A4209D14FF43C
:1023F000C843C4F202034FF00002C2F23D02DA60A9
:102400000DE07A6846F2B843C4F202039A4206D15C
:102410004FF4C843C4F202034FF03D52DA6007F1B3
:102420000C07BD4680BC704780B485B000AF7860B3
:1024300039604FF00003FB607B681B68FB60FA6843
:1024400048F23F03CFF21C031340FB603B681A685D
:102450003B68DB681A433B685B691A433B689B69CE
:102460001A433B68DB691A433B681B6A1A433B68A3
:102470005B6A1A433B689B6A1A433B685B6B1A436F
:102480003B689B6B1343FA681343FB607B68FA68F5
:102490001A607B685B69FB60FB6823F00703FB60E5
:1024A0003B68DA6A3B681B6B1343FA681343FB60B3
:1024B0007B68FA685A613B681A697B685A603B68B6
:1024C0005A687B689A603B689A687B68DA6007F1B3
:1024D0001407BD4680BC704780B483B000AF7860FD
:1024E0000B46FB70FB78002B06D07B681B6843F023
:1024F00001027B681A6005E07B681B6823F001021B
:102500007B681A6007F10C07BD4680BC704700BFAE
:1025100080B485B000AF78604FF00003FB737B6838
:102520001B6803F00103DBB2002B03D04FF0010363
:10253000FB7302E04FF00003FB73FB7B184607F1CF
:102540001407BD4680BC704780B58AB000AF786084
:1025500039604FF00003FB844FF000037B844FF0A1
:102560000403BB844FF49053C0F27A03FB617B6891
:102570009B88FB84FB8C23F03F03FB8407F10C0357
:102580001846FFF7B5F87B69FB61FA694DF683637E
:10259000C4F21B33A3FB02134FEA93437B84FA8CF0
:1025A0007B8C1343FB847B68FA8C9A807B681B8846
:1025B0009BB223F001039AB27B681A804FF00003AC
:1025C000FB843B681A6848F2A063C0F201039A4298
:1025D00018D83B681B684FEA4303FA69B2FBF3F370
:1025E000BB84BB8C032B02D84FF00403BB84FA8C52
:1025F000BB8C1343FB847B8C03F101039AB27B6891
:102600001A844BE03B68DA884BF6FF739A420AD192
:102610003B681A6813464FEA43039B18FA69B2FBFA
:10262000F3F3BB8410E03B681A6813464FEA830358
:102630009B184FEA83029B18FA69B2FBF3F3BB8441
:10264000BB8C43F48043BB84BB8C4FEA03534FEAFB
:102650001353002B03D1BB8C43F00103BB84BA8C12
:10266000FB8C13439BB26FEA43436FEA5343FB84F3
:102670007B8C4FF4967202FB03F244F6D353C1F203
:10268000620383FB02134FEAA3114FEAE273CB1AF2
:102690009BB203F101039AB27B681A847B68FA8CBF
:1026A0009A837B681B889BB243F001039AB27B68D4
:1026B0001A807B681B88FB84FB8C23F4806323F0E7
:1026C0000A03FB843B689A883B685B8913439AB290
:1026D000FB8C1343FB847B68FA8C1A803B689A89D5
:1026E0003B681B8913439AB27B681A8107F128075C
:1026F000BD4680BD80B483B000AF78600B46FB70F0
:10270000FB78002B08D07B681B889BB243F0010349
:102710009AB27B681A8007E07B681B889BB223F023
:1027200001039AB27B681A8007F10C07BD4680BC92
:10273000704700BF80B483B000AF78600B46FB7079
:10274000FB78002B08D07B681B889BB243F4807316
:102750009AB27B681A8007E07B681B889BB223F4DF
:1027600080739AB27B681A8007F10C07BD4680BC63
:10277000704700BF80B483B000AF78600B46FB7039
:10278000FB78002B08D07B681B889BB243F4007356
:102790009AB27B681A8007E07B681B889BB223F49F
:1027A00000739AB27B681A8007F10C07BD4680BCA3
:1027B000704700BF80B483B000AF786013460A460C
:1027C000FA70BB70BB78002B04D0FB7843F0010398
:1027D000FB7003E0FB7823F00103FB70FB789AB2F7
:1027E0007B681A8207F10C07BD4680BC704700BFAA
:1027F00080B483B000AF78600B46FB70FB78002B91
:1028000008D07B681B889BB243F480639AB27B68D4
:102810001A8007E07B681B889BB223F480639AB21E
:102820007B681A8007F10C07BD4680BC704700BF6B
:1028300080B483B000AF78600B46FB70FB789AB22F
:102840007B681A8207F10C07BD4680BC704700BF49
:1028500080B483B000AF78607B681B8A9BB2DBB228
:10286000184607F10C07BD4680BC704780B487B09E
:1028700000AF786039604FF000033B614FF0000318
:10288000FB604FF00003BB604FF00003FB757B68FB
:102890009B8A9BB2FB607B681B8B9BB2BB60BB6857
:1028A0004FEA0343BB60FA68BB68134323F07F43DE
:1028B0003B613A693B681A403B689A4203D14FF04A
:1028C0000103FB7502E04FF00003FB75FB7D18462A
:1028D00007F11C07BD4680BC704700BF80B487B0BD
:1028E00000AF786039604FF00003FB754FF00003D4
:1028F0003B614FF00003FB607B68FB603B684FEA85
:1029000013733B613B6823F07F433B603B69002BC3
:1029100004D0FB6803F11403FB6007E03B684FEA57
:1029200013433B60FB6803F11803FB60FB681A6804
:102930003B681340002B03D04FF00103FB7502E00E
:102940004FF00003FB75FB7D184607F11C07BD46E1
:1029500080BC704780B485B000AF78604FF0000352
:10296000FB734FF00003BB734FF00F037B737B6867
:10297000DB78002B45D04FF46D43CEF20003DB68CB
:102980006FEA030303F4E0634FEA1323FB73FB7B5B
:10299000C3F10403BB737A7BFB7B42FA03F37B73C3
:1029A0007B685B781A46BB7B02FA03F3FB737B6898
:1029B0009A787B7B1340DAB2FB7B1343FB73FB7B80
:1029C0004FEA0313FB734FF46143CEF200037A68BE
:1029D00012789B18FA7B83F800234FF46143CEF200
:1029E00000037A6812784FEA5212D2B279680978F5
:1029F00001F01F014FF0010000FA01F143F822102D
:102A000014E04FF46143CEF200037A6812784FEA83
:102A10005212D2B27968097801F01F014FF001001B
:102A200000FA01F102F1200243F8221007F1140725
:102A3000BD4680BC704700BF2050414E4943212015
:102A40005245475F50494420213D20307837362198
:042A50000000000082
:102A54000000000001020304010203040607080940
:102A64000000000000000000010000000000000061
:102A74000000000000000000000000000000000052
:102A84000000000000000000000000000000000042
:102A94000000000000000000000000000000000032
:102AA4000000000000000000000000000000000022
:102E8400000000000000000010000020000000000E
:0400000508000000EF
:00000001FF
