:020000040800F2
:100000001CCE00208D040008E5040008E50400086B
:10001000E5040008E5040008E5040008000000000D
:10002000000000000000000000000000E5040008DF
:10003000E504000800000000E5040008E5040008ED
:10004000E5040008E5040008E5040008E5040008EC
:10005000E5040008E5040008E5040008E5040008DC
:10006000E5040008E5040008E5040008E5040008CC
:10007000E5040008E5040008E5040008E5040008BC
:10008000E5040008E5040008E5040008E5040008AC
:10009000E5040008E5040008E5040008E50400089C
:1000A000E5040008E5040008E5040008E50400088C
:1000B000E5040008E5040008E5040008E50400087C
:1000C000E5040008E5040008E5040008E50400086C
:1000D000E5040008E5040008E5040008E50400085C
:1000E000E5040008E5040008E5040008E50400084C
:1000F000E5040008E5040008E5040008E50400083C
:10010000E5040008E5040008E5040008E50400082B
:10011000E5040008E5040008E5040008E50400081B
:10012000E5040008E5040008E5040008E50400080B
:10013000E5040008E5040008E5040008E5040008FB
:10014000E5040008E5040008E5040008E5040008EB
:10015000E5040008E5040008E5040008E5040008DB
:10016000E5040008E5040008E5040008E5040008CB
:10017000E5040008E504000819070008E504000884
:10018000E5040008E504000830B587B04FF0020030
:100190004FF0010100F0A2FB4FF480004FF001018D
:1001A00000F0C0FB4FF48065C4F2020528464FF012
:1001B0000A014FF0040200F0C1FC28464FF00B0189
:1001C0004FF0040200F0BAFC4FF001048DF8164025
:1001D0008DF817404FF002038DF814304FF4406251
:1001E00004928DF81530284604A900F049FC48F225
:1001F000A06364F31F4300934FF00003ADF8043095
:100200004BF6FF72ADF80620ADF808304FF480636E
:10021000ADF80A304FF48045ADF80C504FF4B040C3
:1002200065F31F40214600F0EDFE4FF4B04065F34A
:100230001F40694600F066FE07B030BDF8B50446C1
:100240000F4616464FF4003500E000BF2046294611
:1002500000F034FF0028F8D120464FF0010100F0F3
:10026000E1FE4FF00105C0F2030500E000BF2046AB
:10027000294600F015FF0028F8D0204639463246BE
:1002800000F0F0FE16B10CE000BF03E04FF0820575
:10029000C0F207052046294600F002FF0028F3D0EF
:1002A000F8BD012E0CD101E000BF03E04FF00205C4
:1002B000C0F203052046294600F0F2FE0028F3D0E4
:1002C000F8BD00BF38B5054600F0E4FE4FF08404E9
:1002D000C0F2070400E000BF2846214600F0E0FE1F
:1002E0000028F8D038BD00BF38B504464FF00001F3
:1002F00000F0C0FE4FF04005C0F2030500E000BF73
:100300002046294600F0CCFE0028F8D0204600F018
:10031000C3FE38BD08B54FF0010100F093FE08BDE3
:1003200030B585B004460D46038A23F440534FEAA6
:1003300003434FEA1343CA8813430382838923F498
:10034000B05323F00C034FEA03434FEA13430989E8
:10035000AA880A4369890A4392B213438381838A34
:1003600023F440734FEA03434FEA1343AA8913432C
:100370008382684600F046FA4FF48053C4F20103CA
:100380009C4205D04FF4A053C4F201039C4201D11A
:10039000039A00E0029AA3891BB2002B09DA02EB50
:1003A000820202EB82022B684FEA4303B2FBF3F2B4
:1003B00008E002EB820202EB820229684FEA810127
:1003C000B2FBF1F248F21F53C5F2EB13A3FB021389
:1003D0004FEA53134FEA03154FF0640003FB102359
:1003E000A08900B200280DDA4FEAC30303F13203FB
:1003F00048F21F51C5F2EB11A1FB0321C1F34211D9
:1004000029430CE04FEA031303F1320348F21F5172
:10041000C5F2EB11A1FB0321C1F34311294389B2BA
:10042000218105B030BD00BF29B183899BB243F45F
:10043000005383817047838923F400534FEA0343B9
:100440004FEA13438381704739B183896FEA43438D
:100450006FEA53439BB28381704783894FEA4343DA
:100460004FEA5343838170474FEAC1514FEAD1515C
:100470008180704780884FEAC0504FEAD050704763
:10048000038819420CBF00200120704708B5114BAA
:10049000114A9A4211D241F65C22C0F6000240F2A3
:1004A0000003C2F2000340F21000C2F2000052F852
:1004B000041B43F8041B8342F9D3084808494FF052
:1004C00000028842B8BF40F8042BFADB00F098F82D
:1004D00008BD00BF10000020000000201000002018
:1004E00020C60020FEE700BF2DE9F04186B04FF0A6
:1004F00008004FF0010100F0F1F94FF400304FF027
:10050000010100F00FFA4FF44064C4F202042046E7
:100510004FF005014FF0070200F010FB20464FF0AE
:1005200006014FF0070200F009FB4FF48845C4F2C2
:10053000000528464FF00101FFF786FF4FF0000647
:100540008DF816604FF001088DF817804FF0020704
:100550008DF814704FF0200304938DF81570204629
:1005600004A900F08DFA8DF814704FF04003049345
:10057000204604A900F084FA4FF49F43C0F212030E
:100580000093ADF80460ADF80660ADF80860ADF812
:100590000C604FF00C03ADF80A3028466946FFF7AF
:1005A000BFFE28464146FFF73FFF06B0BDE8F08199
:1005B00038B501464FF48840C4F20000FFF754FFFD
:1005C0004FF48844C4F200044FF040052046294609
:1005D000FFF756FF0028F9D038BD00BF10B504461C
:1005E000C0B2FFF7E5FF4FEA1420FFF7E1FF10BDAF
:1005F000012804D900F1FF3000BF0128FAD170476B
:10060000F0B58BB000F0B6FAFFF76EFF4FF00400C4
:100610004FF0010100F062F94FF4007300934FF0C6
:1006200003038DF805304FF002038DF804304FF0CE
:1006300000058DF806504FF001038DF807304FF498
:100640000060C4F20200694600F01AFA4FF0404020
:100650004FF0605100F0CAF842F20F70FFF7C8FF88
:10066000FFF792FD00F0E2FD01F04AF901F0B8F861
:1006700002950395049505950695079508950995A6
:100680004FF48844C4F200042E4646F2B847C4F240
:1006900002072EE005F10105082D08BF00252046C0
:1006A000FFF7E8FE0AAA02EB850343F8200C0A28AC
:1006B0001FD100BF53F8243C0D2B1AD1049A059981
:1006C000039B312B02D0322B1BD10DE04FF00100E8
:1006D00000F06CF94FF0010000F07CF938464FF063
:1006E000010100F0FFFB0CE0D0B2C9B200F07EFDCA
:1006F00007E0204640F22551FFF7C2FE0028F8D05F
:10070000C8E70296039604960596069607960896FD
:1007100009963546EDE700BF70B540F21003C2F20E
:1007200000031A6802F101021A604FF0010000F0A4
:1007300097F978B372B64FF0020440F22005C2F286
:10074000000546F2023635F8140080B2FFF746FF86
:1007500004F10104B442F6D162B64FF0000000F09B
:1007600025F94FF0000000F035F946F2B840C4F228
:1007700002004FF0000100F0B5FB40F21003C2F29E
:1007800000035A6802F101025A604FF0010000F0C4
:1007900071F970BD4FF0080000F044F9012812D142
:1007A00040F21004C2F20004A36803F10103A36045
:1007B0004FF0080000F04EF94FF000032360636033
:1007C000A360E36070BD4FF0100000F02BF901282A
:1007D0000BD140F21003C2F20003DA6802F1010209
:1007E000DA604FF0100000F035F970BD4FF460533F
:1007F000C4F202039A6822F07842104308439860DA
:10080000704700BF10B44FF46053C4F202039B68FA
:1008100003F00C03042B09D0082B0DD0002B38D18A
:100820004FF41053C0F2F403036037E04FF49053D9
:10083000C0F27A03036031E04FF46053C4F2020364
:100840005C685A6802F03F0214F4800F4FF4605362
:10085000C4F202035B68C3F3881319BF4FF49054CA
:10086000C0F27A044FF41054C0F2F404B4FBF2F175
:1008700001FB03F14FF46053C4F202035A68C2F360
:10088000014202F101024FEA4202B1FBF2F30360BE
:1008900004E04FF41053C0F2F40303604FF46052CD
:1008A000C4F202029168C1F3031140F20003C2F2E4
:1008B0000003595C046824FA01F141609468C4F3B0
:1008C00082241C5D21FA04F484609268C2F34232EF
:1008D0009B5C21FA03F1C16010BC704739B14FF441
:1008E0006053C4F202031A6B1043186370474FF44D
:1008F0006053C4F202031A6B22EA000018637047C7
:1009000039B14FF46053C4F202035A6B1043586379
:1009100070474FF46053C4F202035A6B22EA00009E
:100920005863704739B14FF46053C4F202031A6C34
:100930001043186470474FF46053C4F202031A6CFA
:1009400022EA0000186470474FF00003C5F2050367
:100950004FF000021A60DA604FF01F0159619A618E
:10096000DA611A625A62704710B44FF00003C5F2A0
:1009700005031A6822F4804222F001021A60196805
:1009800021F47E6121F01201448802882243848888
:100990002243C48822430489224344892243808914
:1009A000024392B20A431A6010BC704740B14FF044
:1009B0000003C5F205031A6842F480421A607047CA
:1009C0004FF00003C5F205031A6822F480421A6052
:1009D000704700BF40B14FF00003C5F205031A682D
:1009E00042F001021A6070474FF00003C5F20503A0
:1009F0001A6822F001021A60704700BF39B14FF047
:100A00000003C5F20503DA681043D86070474FF061
:100A10000003C5F20503DA686FEA000080B21040F7
:100A2000D86070474FEA1033012B05D14FF0000317
:100A3000C5F205039B6807E0022B4FF00003C5F2E7
:100A400005030CBF5B681B6903420CBF002001203B
:100A5000704700BF4FF00003C5F2050358617047AF
:100A60004FF00003C5F205031B6918420CBF0020BC
:100A7000012070474FF00003C5F20503586170472D
:100A80002DE9F0074FF0000213464FF001074FF039
:100A9000030C1E4607FA03F40D682540A54243D116
:100AA000D0F8009090460CFA02F46FEA040404EACD
:100AB0000909C0F80090D0F800A091F8049009FA54
:100AC00002F949EA0A09C0F8009091F8049009F186
:100AD000FF395FFA89F9B9F1010F1CD8D0F80890F5
:100AE00004EA0909C0F80890D0F808A091F8059028
:100AF00009FA02F949EA0A09C0F80890D0F8049006
:100B000029EA05054560456891F8069009FA03F65B
:100B1000B6B22E434660C5682C40C460C568CC7927
:100B200004FA08F42C43C46003F1010302F1020249
:100B3000102BAED1BDE8F007704700BF30B401F014
:100B400007034FEA83034FEAD10101F1080150F88E
:100B500021504FF00F0404FA03F425EA040440F88E
:100B6000214050F8214002FA03F3234340F821309A
:100B700030BC704782B04FF46053C4F202031A686D
:100B800042F001021A604FF000029A60196821F0E9
:100B9000847121F48031196043F21001C2F20041E6
:100BA0005960196821F480211960DA60009201927D
:100BB0001A6842F480321A604FF46052C4F20202A2
:100BC000136803F400330193009B03F101030093C6
:100BD000019B1BB9009BB3F5A06FF1D14FF460539B
:100BE000C4F202031B6813F4003F14BF0123002367
:100BF0000193019B012B46D14FF46053C4F20203D1
:100C00001A6C42F080521A644FF4E042C4F20002BF
:100C1000116841F4804111609A689A609A6842F4C0
:100C200000429A609A6842F4A0529A6045F20842E3
:100C3000C0F240725A601A6842F080721A604FF433
:100C40006052C4F20202136813F0007FFBD04FF42D
:100C50007053C4F2020340F205621A604FF460530D
:100C6000C4F202039A6822F003029A609A6842F082
:100C700002029A604FF46052C4F20202936803F0D9
:100C80000C03082BFAD14FF46D43CEF200034FF062
:100C900000629A6002B07047036823F001030360AA
:100CA0004FF00003036043608360C36003614FF053
:100CB0002103436146F21003C4F20203984207D1B4
:100CC0004FF4C043C4F202034FF03D029A607047F4
:100CD00046F22803C4F20203984207D14FF4C043FE
:100CE000C4F202034FF474629A60704746F2400304
:100CF000C4F20203984207D14FF4C043C4F2020386
:100D00004FF474129A60704746F25803C4F202031B
:100D1000984207D14FF4C043C4F202034FF074620B
:100D20009A60704746F27003C4F20203984209D1F8
:100D30004FF4C043C4F202034FF03D02C2F200027E
:100D4000DA60704746F28803C4F20203984209D180
:100D50004FF4C043C4F202034FF47462C2F20002C3
:100D6000DA60704746F2A003C4F20203984209D148
:100D70004FF4C043C4F202034FF00002C2F23D023E
:100D8000DA60704746F2B803C4F20203984207D112
:100D90004FF4C043C4F202034FF03D52DA60704793
:100DA00046F21043C4F20203984207D14FF4C843FD
:100DB000C4F202034FF03D029A60704746F22843A6
:100DC000C4F20203984207D14FF4C843C4F20203AD
:100DD0004FF474629A60704746F24043C4F20203D3
:100DE000984207D14FF4C843C4F202034FF474127F
:100DF0009A60704746F25843C4F20203984207D102
:100E00004FF4C843C4F202034FF074629A60704713
:100E100046F27043C4F20203984209D14FF4C8432A
:100E2000C4F202034FF03D02C2F20002DA607047E2
:100E300046F28843C4F20203984209D14FF4C843F2
:100E4000C4F202034FF47462C2F20002DA60704727
:100E500046F2A043C4F20203984209D14FF4C843BA
:100E6000C4F202034FF00002C2F23D02DA607047A2
:100E700046F2B843C4F20203984206D14FF4C84385
:100E8000C4F202034FF03D52DA60704710B40268BA
:100E900048F23F03CFF21C031340CC680A68224398
:100EA0004C6922438C692243CC6922430C6A224359
:100EB0004C6A22438C6A22434C6B22438C6B224344
:100EC00013430360426922F007020C6BCB6A234391
:100ED000134343610B6943604B6883608B68C36055
:100EE00010BC704721B1036843F0010303607047F1
:100EF000036823F001030360704700BF006800F03F
:100F00000100704770B584B004460D46868826F00F
:100F10003F064FEA06464FEA16466846FFF772FC60
:100F200002994DF68362C4F21B32A2FB01024FEA22
:100F300092421643A680238823F001034FEA03431D
:100F40004FEA134323802B6848F2A060C0F20100EF
:100F500083420BD84FEA4303B1FBF3F189B202F1AC
:100F600001022284032998BF04212EE0EE884BF66B
:100F7000FF70864205D103EB4303B1FBF3F189B265
:100F800008E003EB830303EB8303B1FBF3F189B2C6
:100F900041F480414FEA01534FEA13530BB941F03A
:100FA00001016FEA41416FEA514189B24FF49673F2
:100FB00003FB02F244F6D353C1F2620383FB020344
:100FC0004FEAA31303F101032384A18323889BB277
:100FD00043F001032380238823F4806323F00A0372
:100FE0004FEA03434FEA13436989AA880A4313432C
:100FF0009BB223802A89AB8913439BB2238104B01F
:1010000070BD00BF29B103889BB243F00103038088
:101010007047038823F001034FEA03434FEA134369
:101020000380704729B103889BB243F48073038027
:101030007047038823F480734FEA03434FEA134356
:101040000380704729B103889BB243F40073038087
:101050007047038823F400734FEA03434FEA1343B6
:101060000380704712B141F0010101E001F0FE017F
:101070000182704729B103889BB243F480630380E7
:101080007047038823F480634FEA03434FEA134316
:101090000380704701827047008AC0B2704700BF6A
:1010A000838A9BB2008B43EA0040084020F07F40D7
:1010B000814214BF00200120704700BF82B04FF072
:1010C00000030193009300904FEA1173019321F004
:1010D0007F41019B23B1009B03F11403009305E0C2
:1010E0004FEA1141009B03F118030093009B1B681A
:1010F00019420CBF0020012002B0704710B4C37821
:101100006BB34FF46D43CEF20003DB686FEA030369
:10111000C3F302234178C3F10402D2B201FA02F20E
:10112000D2B24FF00F0141FA03F18478214011430C
:101130004FEA0111C9B202784FF46143CEF20003C5
:101140009A1882F8001302784FEA521102F01F0237
:101150004FF0010000FA02F243F8212010E003787A
:101160004FEA531203F01F034FF0010101FA03F19C
:101170004FF46143CEF2000302F1200243F8221043
:1011800010BC7047012804D900F1FF3000BF0128CE
:10119000FAD1704738B505464FF4B044C4F20004A4
:1011A00020464FF042014FF00002FFF747F820467B
:1011B0002946FFF787F82046FFF7ACF842F20F7098
:1011C000FFF7E0FF20464FF043014FF00102FFF729
:1011D00035F82046FFF788F805462046FFF79AF8CD
:1011E00042F20F70FFF7CEFF284638BD70B50546B6
:1011F0000E464FF4B044C4F2000420464FF04201C2
:101200004FF00002FFF71AF820462946FFF75AF878
:1012100020463146FFF756F82046FFF77BF842F2AA
:101220000F70FFF7AFFF4FF0000070BD08B54FF033
:101230000A00FFF7AFFF762840F0CF824FF0120090
:101240004FF08001FFF7D2FF4FF011004FF0010186
:10125000FFF7CCFF4FF012004FF00001FFF7C6FF81
:101260004FF017004FF03901FFF7C0FF4FF01800A3
:101270004FF00301FFF7BAFF4FF03200FFF78AFF8C
:1012800000F0C0014FF03200FFF7B0FF4FF019003F
:101290004FF00301FFF7AAFF4FF01A004FF07B0158
:1012A000FFF7A4FF4FF00300FFF774FF00F0F00119
:1012B00041F00A014FF00300FFF798FF4FF00C00D8
:1012C0000146FFF793FF4FF03E004FF01101FFF78B
:1012D0008DFF4FF073004FF0F101FFF787FF4FF0E4
:1012E000A2004FF05201FFF781FF4FF07B004FF05B
:1012F0001C01FFF77BFF4FF07C004FF02801FFF748
:1013000075FF4FF07D004FF03C01FFF76FFF4FF08E
:101310007F004FF06901FFF769FF4FF014004FF0B5
:101320003801FFF763FF4FF0A1004FF00B01FFF70B
:101330005DFF4FF074004FF01901FFF757FF4FF0BA
:101340009A004FF08001FFF751FF4FF043004FF03C
:101350001401FFF74BFF4FF03D004FF0C001FFF7C6
:1013600045FF4FF070004FF03A01FFF73FFF4FF09D
:1013700071004FF03501FFF739FF4FF072004FF069
:101380001101FFF733FF4FF07A004FF02001FFF714
:101390002DFF4FF07B004FF01001FFF727FF4FF0BC
:1013A0007C004FF01E01FFF721FF4FF07D004FF052
:1013B0003501FFF71BFF4FF07E004FF05A01FFF79A
:1013C00015FF4FF07F004FF06901FFF70FFF4FF05F
:1013D00080004FF07601FFF709FF4FF081004FF0DA
:1013E0008001FFF703FF4FF082004FF08801FFF705
:1013F000FDFE4FF083004FF08F01FFF7F7FE4FF037
:1014000084004FF09601FFF7F1FE4FF085004FF09A
:10141000A301FFF7EBFE4FF086004FF0AF01FFF79F
:10142000E5FE4FF087004FF0C401FFF7DFFE4FF0FD
:1014300088004FF0D701FFF7D9FE4FF089004FF039
:10144000E801FFF7D3FE4FF013004FF0E001FFF784
:10145000CDFE4FF000000146FFF7C8FE4FF0100030
:101460004FF00001FFF7C2FE4FF00D004FF04001BA
:10147000FFF7BCFE4FF014004FF01801FFF7B6FE67
:101480004FF0A5004FF00501FFF7B0FE4FF0AB00A5
:101490004FF00701FFF7AAFE4FF024004FF095012F
:1014A000FFF7A4FE4FF025004FF03301FFF79EFE3B
:1014B0004FF026004FF0E301FFF798FE4FF09F003A
:1014C0004FF07801FFF792FE4FF0A0004FF0680157
:1014D000FFF78CFE4FF0A1004FF00301FFF786FEEF
:1014E0004FF0A6004FF0D801FFF780FE4FF0A700A5
:1014F0004FF0D801FFF77AFE4FF0A8004FF0F0014F
:10150000FFF774FE4FF0A9004FF09001FFF76EFE59
:101510004FF0AA004FF09401FFF768FE4FF0130060
:101520004FF0E501FFF762FE4FF00E004FF0610152
:10153000FFF75CFE4FF00F004FF04B01FFF756FE38
:101540004FF016004FF00201FFF750FE4FF01E0063
:101550004FF00701FFF74AFE4FF021004FF0020164
:10156000FFF744FE4FF022004FF09101FFF73EFEDF
:101570004FF029004FF00701FFF738FE4FF033001E
:101580004FF00B01FFF732FE4FF035004FF00B012B
:10159000FFF72CFE4FF037004FF01D01FFF726FE3E
:1015A0004FF038004FF07101FFF720FE4FF0390087
:1015B0004FF02A01FFF71AFE4FF03C004FF0780180
:1015C000FFF714FE4FF04D004FF04001FFF70EFE05
:1015D0004FF04E004FF02001FFF708FE4FF069007A
:1015E0004FF00001FFF702FE4FF06B004FF04A0191
:1015F000FFF7FCFD4FF074004FF01001FFF7F6FD10
:101600004FF08D004FF04F01FFF7F0FD4FF08E00CF
:101610004FF00001FFF7EAFD4FF08F004FF000019F
:10162000FFF7E4FD4FF090004FF00001FFF7DEFD03
:101630004FF091004FF00001FFF7D8FD4FF09600FA
:101640004FF00001FFF7D2FD4FF09A004FF000017C
:10165000FFF7CCFD4FF0B0004FF08401FFF7C6FD5F
:101660004FF0B1004FF00C01FFF7C0FD4FF0B2009A
:101670004FF00E01FFF7BAFD4FF0B3004FF08201BB
:10168000FFF7B4FD4FF0B8004FF00A01FFF7AEFDD1
:101690004FF04F004FF08001FFF7A8FD4FF05000D2
:1016A0004FF08001FFF7A2FD4FF051004FF0000115
:1016B000FFF79CFD4FF052004FF02201FFF796FD1F
:1016C0004FF053004FF05E01FFF790FD4FF05400D4
:1016D0004FF08001FFF78AFD4FF058004FF09E0158
:1016E000FFF784FD4FF043004FF00A01FFF77EFD46
:1016F0004FF044004FF0F001FFF778FD4FF0450048
:101700004FF03401FFF772FD4FF046004FF05801E3
:10171000FFF76CFD4FF047004FF02801FFF766FD23
:101720004FF048004FF03A01FFF760FD4FF05900CD
:101730004FF08801FFF75AFD4FF05A004FF0880133
:10174000FFF754FD4FF05B004FF04401FFF74EFDF3
:101750004FF05C004FF06701FFF748FD4FF05D0070
:101760004FF04901FFF742FD4FF05E004FF00E01D0
:10177000FFF73CFD4FF06C004FF00A01FFF736FD1C
:101780004FF06D004FF05501FFF730FD4FF06E0048
:101790004FF01101FFF72AFD4FF06F004FF09F014E
:1017A000FFF724FD4FF06A004FF04001FFF71EFDE8
:1017B0004FF001004FF04001FFF718FD4FF002001D
:1017C0004FF06001FFF712FD4FF013004FF0E701FB
:1017D000FFF70CFD4FF0000008BD4FF0010008BD01
:1017E00010B592B04FF4A06302934FF480004FF015
:1017F0000101FFF773F846F2B840C4F20200FFF7A8
:101800004BFA46F2B844C4F202042046FFF776FBD6
:101810000028FAD14FF0007303934FF02803C5F26C
:101820000503049340F22003C2F2000305934FF036
:10183000000306934FF44652079208934FF48062D8
:1018400009924FF480520A924FF400520B924FF4D7
:1018500080720C924FF400320D924FF004020E92FF
:101860004FF003020F921093119346F2B840C4F266
:10187000020003A9FFF70AFB4FF4A063029346F2AC
:10188000B844C4F202042046FFF738FB012805D013
:10189000029B03F1FF320292002BF4D1029B03B9A9
:1018A000FEE74FF04E038DF804304FF000038DF843
:1018B00005308DF806304FF001048DF8074001A87F
:1018C000FFF71CFC20462146FFF798F84FF0080070
:1018D0002146FFF793F84FF010002146FFF78EF8EE
:1018E0002046FFF763F82046FFF774F846F2B84049
:1018F000C4F202002146FFF7F5FA12B010BD00BF96
:101900002DE9F04387B04FF017004FF00101FEF7CB
:10191000E5FF4FF00006C4F2020630464FF0040126
:101920004FF00D02FFF70AF930464FF006014FF075
:101930000D02FFF703F94FF48064C4F2020420465D
:101940004FF006014FF00D02FFF7F8F820464FF078
:1019500007014FF00D02FFF7F1F820464FF00801A4
:101960004FF00D02FFF7EAF820464FF009014FF063
:101970000D02FFF7E3F84FF40065C4F202052846B4
:101980004FF00B014FF00D02FFF7D8F828464FF04B
:1019900006014FF00D02FFF7D1F828464FF007017E
:1019A0004FF00D02FFF7CAF84FF48057C4F2020758
:1019B00038464FF000014FF00D02FFF7BFF83846F0
:1019C0004FF001014FF00D02FFF7B8F84FF48A63B2
:1019D00004934FF002038DF814304FF003098DF893
:1019E00015904FF000088DF816808DF8178030465E
:1019F00004A9FFF745F84FF470730493204604A937
:101A0000FFF73EF84FF40C630493284604A9FFF750
:101A100037F8CDF81090384604A9FFF731F84FF0A9
:101A200001000146FEF76CFFFEF78EFFADF8008067
:101A3000ADF80A80ADF80C80ADF808804FF02003B7
:101A4000ADF80430ADF802804FF08003ADF80630F9
:0C1A50006846FEF789FF07B0BDE8F08390
:101A5C000000000001020304010203040607080948
:0400000508000000EF
:00000001FF
